CO0T                                                            00000000000000000000000CORONA    CS        070802019022519000000                                                                                                                                                                                                                                                                                                                                                                                                                                                                                                                                                                                                                                                                                                                                                                                                                                                                                                                                
CO1TKCBLKENX   KCBLKENX   KES1400530450001VOOMA              KES2019022590225000010001120190225000000000000000000C                                                                                                                                                                                                                                                                                                                                                                                                                                                                                                                                                                                                                                                                                                                                                                                                                                                                                                                                              
CO2TKCBLKENX   KCBLKENX   KES1400530450001VOOMA              KES20190225902250000100022000000000006116000D 201902202019022510017           20190220140719  10017           905114408025    1   10        110408024                                R40478000  S40401000                                                                                                                                                                                                                                                                                                                                                                                            110408025                                                                                                                                                                                                                                                                                                                                                                                     
CO2TKCBLKENX   KCBLKENX   KES1400530450001VOOMA              KES20190225902250000100032000000000030146000C 2019022220190225                20190222142210                  905314683695    1   10        110683694                                R40478000  S40401000                                                                                                                                                                                                                                                                                                                                                                                            110683699                                                                                                                                                                                                                                                                                                                                                                                     
CO2TKCBLKENX   KCBLKENX   KES1400530450001VOOMA              KES20190225902250000100042000000000007146000C 2019022220190225                20190222142537                  905314684050    1   10        110684049                                R40478000  S40401000                                                                                                                                                                                                                                                                                                                                                                                            110684056                                                                                                                                                                                                                                                                                                                                                                                     
CO2TKCBLKENX   KCBLKENX   KES1400530450001VOOMA              KES20190225902250000100052000000000030136000D 2019022220190225254722309263    20190222124313  254722309263    905312674121    1   10        110674120                                R40478000  S40401000                                                                                                                                                                                                                                                                                                                                                                                            110674121                                                                                                                                                                                                                                                                                                                                                                                     
CO2TKCBLKENX   KCBLKENX   KES1400530450001VOOMA              KES20190225902250000100062000000000030156000D 2019022220190225254722309263    20190222142303  254722309263    905314683794    1   10        110683793                                R40478000  S40401000                                                                                                                                                                                                                                                                                                                                                                                            110683794                                                                                                                                                                                                                                                                                                                                                                                     
CO2TKCBLKENX   KCBLKENX   KES1400530450001VOOMA              KES20190225902250000100072000000000007126000D 201902212019022510017           20190221110010  10017           905211523426    1   10        110523425                                R40478000  S40401000                                                                                                                                                                                                                                                                                                                                                                                            110523426                                                                                                                                                                                                                                                                                                                                                                                     
CO2TKCBLKENX   KCBLKENX   KES1400530450001VOOMA              KES20190225902250000100082000000000011116000D 2019022220190225254722309263    20190222090106  254722309263    905309653289    1   10        110653288                                R40478000  S40401000                                                                                                                                                                                                                                                                                                                                                                                            110653289                                                                                                                                                                                                                                                                                                                                                                                     
CO2TKCBLKENX   KCBLKENX   KES1400530450001VOOMA              KES20190225902250000100092000000000004226000D 201902202019022510017           20190220140001  10017           905114407283    1   10        110407282                                R40478000  S40401000                                                                                                                                                                                                                                                                                                                                                                                            110407283                                                                                                                                                                                                                                                                                                                                                                                     
CO2TKCBLKENX   KCBLKENX   KES1400530450001VOOMA              KES20190225902250000100102000000009000116000D 2019022220190225888111111111    20190222125951  888111111111    905312675743    1   10        110675742                                R40453000  S40401000                                                                                                                                                                                                                                                                                                                                                                                            110675743                                                                                                                                                                                                                                                                                                                                                                                     
CO2TKCBLKENX   KCBLKENX   KES1400530450001VOOMA              KES20190225902250000100112000000000020116000D 2019022020190225888111111111    20190220124517  888111111111    905112399628    1   10        110399627                                R40478000  S40401000                                                                                                                                                                                                                                                                                                                                                                                            110399628                                                                                                                                                                                                                                                                                                                                                                                     
CO2TKCBLKENX   KCBLKENX   KES1400530450001VOOMA              KES20190225902250000100122000000000006216000D 201902202019022510017           20190220141228  10017           905114408540    1   10        110408539                                R40478000  S40401000                                                                                                                                                                                                                                                                                                                                                                                            110408540                                                                                                                                                                                                                                                                                                                                                                                     
CO2TKCBLKENX   KCBLKENX   KES1400530450001VOOMA              KES20190225902250000100132000000000013916000C 2019022220190225                20190222144124                  905314685586    1   10        110685585                                R40478000  S40401000                                                                                                                                                                                                                                                                                                                                                                                            110685590                                                                                                                                                                                                                                                                                                                                                                                     
CO2TKCBLKENX   KCBLKENX   KES1400530450001VOOMA              KES20190225902250000100142000000000005200000D 2019022020190225888111111111    20190220121624  888111111111    905112396665    1   10        110396664                                R40478000  S40401000                                                                                                                                                                                                                                                                                                                                                                                            110396665                                                                                                                                                                                                                                                                                                                                                                                     
CO2TKCBLKENX   KCBLKENX   KES1400530450001VOOMA              KES20190225902250000100152000000000004226000D 201902202019022510017           20190220132108  10017           905113403303    1   10        110403302                                R40478000  S40401000                                                                                                                                                                                                                                                                                                                                                                                            110403303                                                                                                                                                                                                                                                                                                                                                                                     
CO2TKCBLKENX   KCBLKENX   KES1400530450001VOOMA              KES20190225902250000100162000000000003226000D 2019022520190225254722309263    20190225104712  254722309263    905610140255    1   10        111140254                                R40478000  S40401000                                                                                                                                                                                                                                                                                                                                                                                            110140255                                                                                                                                                                                                                                                                                                                                                                                     
CO2TKCBLKENX   KCBLKENX   KES1400530450001VOOMA              KES20190225902250000100172000000000006306000D 201902202019022510017           20190220140620  10017           905114407927    1   10        110407926                                R40478000  S40401000                                                                                                                                                                                                                                                                                                                                                                                            110407927                                                                                                                                                                                                                                                                                                                                                                                     
CO2TKCBLKENX   KCBLKENX   KES1400530450001VOOMA              KES20190225902250000100182000000000011116000D 2019022220190225254722309263    20190222102736  254722309263    905310661255    1   10        110661254                                R40478000  S40401000                                                                                                                                                                                                                                                                                                                                                                                            110661255                                                                                                                                                                                                                                                                                                                                                                                     
CO2TKCBLKENX   KCBLKENX   KES1400530450001VOOMA              KES20190225902250000100192000000000030126000D 2019022220190225254722309263    20190222123617  254722309263    905312673442    1   10        110673441                                R40478000  S40401000                                                                                                                                                                                                                                                                                                                                                                                            110673442                                                                                                                                                                                                                                                                                                                                                                                     
CO2TKCBLKENX   KCBLKENX   KES1400530450001VOOMA              KES20190225902250000100202000000000007146000D 201902222019022510017           20190222142536  10017           905314684050    1   10        110684049                                R40478000  S40401000                                                                                                                                                                                                                                                                                                                                                                                            110684050                                                                                                                                                                                                                                                                                                                                                                                     
CO2TKCBLKENX   KCBLKENX   KES1400530450001VOOMA              KES20190225902250000100212000000000010146000D 2019022220190225254722309263    20190222144423  254722309263    905314685890    1   10        110685889                                R40478000  S40401000                                                                                                                                                                                                                                                                                                                                                                                            110685890                                                                                                                                                                                                                                                                                                                                                                                     
CO2TKCBLKENX   KCBLKENX   KES1400530450001VOOMA              KES20190225902250000100222000000000013916000D 2019022220190225254722309263    20190222144209  254722309263    905314685663    1   10        110685662                                R40478000  S40401000                                                                                                                                                                                                                                                                                                                                                                                            110685663                                                                                                                                                                                                                                                                                                                                                                                     
CO2TKCBLKENX   KCBLKENX   KES1400530450001VOOMA              KES20190225902250000100232000000000030146000D 2019022220190225254722309263    20190222142209  254722309263    905314683695    1   10        110683694                                R40478000  S40401000                                                                                                                                                                                                                                                                                                                                                                                            110683695                                                                                                                                                                                                                                                                                                                                                                                     
CO2TKCBLKENX   KCBLKENX   KES1400530450001VOOMA              KES20190225902250000100242000000000007136000D 201902222019022510017           20190222142410  10017           905314683901    1   10        110683899                                R40478000  S40401000                                                                                                                                                                                                                                                                                                                                                                                            110683901                                                                                                                                                                                                                                                                                                                                                                                     
CO2TKCBLKENX   KCBLKENX   KES1400530450001VOOMA              KES20190225902250000100252000000000030166000C 2019022220190225                20190222144508                  905314685962    1   10        110685961                                R40478000  S40401000                                                                                                                                                                                                                                                                                                                                                                                            110685970                                                                                                                                                                                                                                                                                                                                                                                     
CO2TKCBLKENX   KCBLKENX   KES1400530450001VOOMA              KES20190225902250000100262000000000005116000D 2019022020190225888111111111    20190220121753  888111111111    905112396816    1   10        110396815                                R40478000  S40401000                                                                                                                                                                                                                                                                                                                                                                                            110396816                                                                                                                                                                                                                                                                                                                                                                                     
CO2TKCBLKENX   KCBLKENX   KES1400530450001VOOMA              KES20190225902250000100272000000000013516000D 2019022220190225254722309263    20190222103002  254722309263    905310661463    1   10        110661462                                R40478000  S40401000                                                                                                                                                                                                                                                                                                                                                                                            110661463                                                                                                                                                                                                                                                                                                                                                                                     
CO2TKCBLKENX   KCBLKENX   KES1400530450001VOOMA              KES20190225902250000100282000000000013916000D 2019022220190225254722309263    20190222104635  254722309263    905310662842    1   10        110662841                                R40478000  S40401000                                                                                                                                                                                                                                                                                                                                                                                            110662842                                                                                                                                                                                                                                                                                                                                                                                     
CO2TKCBLKENX   KCBLKENX   KES1400530450001VOOMA              KES20190225902250000100292000000000030166000D 2019022220190225254722309263    20190222144812  254722309263    905314686255    1   10        110686254                                R40478000  S40401000                                                                                                                                                                                                                                                                                                                                                                                            110686255                                                                                                                                                                                                                                                                                                                                                                                     
CO2TKCBLKENX   KCBLKENX   KES1400530450001VOOMA              KES20190225902250000100302000000000003166000D 2019022520190225254722309263    20190225103228  254722309263    905610138687    1   10        111138686                                R40478000  S40401000                                                                                                                                                                                                                                                                                                                                                                                            110138687                                                                                                                                                                                                                                                                                                                                                                                     
CO2TKCBLKENX   KCBLKENX   KES1400530450001VOOMA              KES20190225902250000100312000000000011116000C 2019022220190225                20190222102737                  905310661255    1   10        110661254                                R40478000  S40401000                                                                                                                                                                                                                                                                                                                                                                                            110661259                                                                                                                                                                                                                                                                                                                                                                                     
CO2TKCBLKENX   KCBLKENX   KES1400530450001VOOMA              KES20190225902250000100322000000000005116000D 2019022120190225888111111111    20190221131435  888111111111    905213537403    1   10        110537400                                R40403000  S40401000                                                                                                                                                                                                                                                                                                                                                                                            110537403                                                                                                                                                                                                                                                                                                                                                                                     
CO2TKCBLKENX   KCBLKENX   KES1400530450001VOOMA              KES20190225902250000100332000000000004226000D 201902202019022510017           20190220130201  10017           905113401346    1   10        110401345                                R40478000  S40401000                                                                                                                                                                                                                                                                                                                                                                                            110401346                                                                                                                                                                                                                                                                                                                                                                                     
CO2TKCBLKENX   KCBLKENX   KES1400530450001VOOMA              KES20190225902250000100342000000000005116000D 2019022220190225888111111111    20190222115641  888111111111    905311669606    1   10        110669605                                R40453000  S40401000                                                                                                                                                                                                                                                                                                                                                                                            110669606                                                                                                                                                                                                                                                                                                                                                                                     
CO2TKCBLKENX   KCBLKENX   KES1400530450001VOOMA              KES20190225902250000100352000000000010126000D 2019022220190225254722309263    20190222124518  254722309263    905312674336    1   10        110674335                                R40478000  S40401000                                                                                                                                                                                                                                                                                                                                                                                            110674336                                                                                                                                                                                                                                                                                                                                                                                     
CO2TKCBLKENX   KCBLKENX   KES1400530450001VOOMA              KES20190225902250000100362000000000013916000C 2019022220190225                20190222144211                  905314685663    1   10        110685662                                R40478000  S40401000                                                                                                                                                                                                                                                                                                                                                                                            110685672                                                                                                                                                                                                                                                                                                                                                                                     
CO2TKCBLKENX   KCBLKENX   KES1400530450001VOOMA              KES20190225902250000100372000000000007116000D 201902212019022510018           20190221105801  10018           905210523193    1   10        110523192                                R40478000  S40401000                                                                                                                                                                                                                                                                                                                                                                                            110523193                                                                                                                                                                                                                                                                                                                                                                                     
CO2TKCBLKENX   KCBLKENX   KES1400530450001VOOMA              KES20190225902250000100382000000000013916000D 2019022220190225254722309263    20190222144121  254722309263    905314685586    1   10        110685585                                R40478000  S40401000                                                                                                                                                                                                                                                                                                                                                                                            110685586                                                                                                                                                                                                                                                                                                                                                                                     
CO2TKCBLKENX   KCBLKENX   KES1400530450001VOOMA              KES20190225902250000100392000000000030166000D 2019022220190225254722309263    20190222144506  254722309263    905314685962    1   10        110685961                                R40478000  S40401000                                                                                                                                                                                                                                                                                                                                                                                            110685962                                                                                                                                                                                                                                                                                                                                                                                     
CO2TKCBLKENX   KCBLKENX   KES1400530450001VOOMA              KES20190225902250000100402000000009279270000C 2019022520190225SETTLEMENT                                                                                                                                                                                                                                                                                                                                                                                                                                                                                                                                                                                                                                                                                                                                                                                                                                                                                                                           
CO3TKCBLKENX   KCBLKENX   KES1400530450001VOOMA              KES2019022590225000010041320190225000000000000000000C                                                                                                                                                                                                                                                                                                                                                                                                                                                                                                                                                                                                                                                                                                                                                                                                                                                                                                                                              
