CO0T                                                            00000000000000000000000CORONA    CS        070802019022519000000                                                                                                                                                                                                                                                                                                                                                                                                                                                                                                                                                                                                                                                                                                                                                                                                                                                                                                                                
CO1TKCBLKENX   KCBLKENX   KES1400530450001TWO                KES2019022590225000010001120190225000000000000000000C                                                                                                                                                                                                                                                                                                                                                                                                                                                                                                                                                                                                                                                                                                                                                                                                                                                                                                                                              
CO2TKCBLKENX   KCBLKENX   KES1400530450001TWO                KES20190225902250000100022000000000001000000C 20190215201902251109753799      20190215155720  1109753799      904615757842    474026        109757840                                R40401000  S40403000                                                                                                                                                                                                                                                                                                                                                                                            454740263757842                                                                                                                                                                                                                                                                                                                                                                               
CO2TKCBLKENX   KCBLKENX   KES1400530450001TWO                KES20190225902250000100032000000000006000000C 20190215201902251126929891      20190215161234  1126929891      904616759351    597126        109759348                                R40401000  S40412000                                                                                                                                                                                                                                                                                                                                                                                            44597126408007759351                                                                                                                                                                                                                                                                                                                                                                          
CO2TKCBLKENX   KCBLKENX   KES1400530450001TWO                KES20190225902250000100042000000000001100000C 2019021520190225206206          20190215162426  206206          904616760533    736326        109760531                                R40401000  S40457000                                                                                                                                                                                                                                                                                                                                                                                            41736326892009760533                                                                                                                                                                                                                                                                                                                                                                          
CO2TKCBLKENX   KCBLKENX   KES1400530450001TWO                KES20190225902250000100052000000000011500000C 2019021920190225206206          20190219110105  206206          905011246509    327226        110246507                                R40401000  S40441000                                                                                                                                                                                                                                                                                                                                                                                            41327226373011246509                                                                                                                                                                                                                                                                                                                                                                          
CO2TKCBLKENX   KCBLKENX   KES1400530450001TWO                KES20190225902250000100062000000000010500000C 2019022020190225206206          20190220114448  206206          905111393456    346126        110393450                                R40401000  S40419000                                                                                                                                                                                                                                                                                                                                                                                            46346126IKSJFU393456                                                                                                                                                                                                                                                                                                                                                                          
CO2TKCBLKENX   KCBLKENX   KES1400530450001TWO                KES20190225902250000100072000000000001110000C 2019022020190225254786925917    20190220142309  254786925917    905114409615    075526        110409613                                R40401000  S40401000                                                                                                                                                                                                                                                                                                                                                                                            44075526IKSJGC409615                                                                                                                                                                                                                                                                                                                                                                          
CO2TKCBLKENX   KCBLKENX   KES1400530450001TWO                KES20190225902250000100082000000000006000000C 2019022120190225206206          20190221094038  206206          905209515151    327226        110515149                                R40401000  S40441000                                                                                                                                                                                                                                                                                                                                                                                            41327226IKSJGZ515151                                                                                                                                                                                                                                                                                                                                                                          
CO2TKCBLKENX   KCBLKENX   KES1400530450001TWO                KES20190225902250000100092000000000011500000C 2019022120190225206206          20190221123859  206206          905212533736    327226        110533731                                R40401000  S40441000                                                                                                                                                                                                                                                                                                                                                                                            41327226IKSJHD533736                                                                                                                                                                                                                                                                                                                                                                          
CO2TKCBLKENX   KCBLKENX   KES1400530450001TWO                KES20190225902250000100102000000000001000000C 20190221201902251109855338      20190221164057  1109855338      905216558462    597126        110558460                                R40401000  S40412000                                                                                                                                                                                                                                                                                                                                                                                            44597126IKSJHF558462                                                                                                                                                                                                                                                                                                                                                                          
CO2TKCBLKENX   KCBLKENX   KES1400530450001TWO                KES20190225902250000100112000000000422449500C 2019022120190225                20190221175135                  905217565439    075510        110565438                                R  S40401000                                                                                                                                                                                                                                                                                                                                                                                                    44075510565441                                                                                                                                                                                                                                                                                                                                                                                
CO2TKCBLKENX   KCBLKENX   KES1400530450001TWO                KES20190225902250000100122000000000421849500C 2019022120190225                20190221191436                  905219574077    075510        110574076                                R  S40401000                                                                                                                                                                                                                                                                                                                                                                                                    44075510574079                                                                                                                                                                                                                                                                                                                                                                                
CO2TKCBLKENX   KCBLKENX   KES1400530450001TWO                KES20190225902250000100132000000000030500000C 2019022220190225206206          20190222175843  206206          905317705798    327226        110705796                                R40401000  S40441000                                                                                                                                                                                                                                                                                                                                                                                            41327226IKSJIF705798                                                                                                                                                                                                                                                                                                                                                                          
CO2TKCBLKENX   KCBLKENX   KES1400530450001TWO                KES20190225902250000100142000000000001110000D 20190220201902251101880538      20190220151440  1101880538      905115414685    075510        110414684                                R40401000  S40401000                                                                                                                                                                                                                                                                                                                                                                                            44075510414685                                                                                                                                                                                                                                                                                                                                                                                
CO2TKCBLKENX   KCBLKENX   KES1400530450001TWO                KES20190225902250000100152000000000005000000C 20190215201902251109753799      20190215160627  1109753799      904616758779    474026        109758777                                R40401000  S40403000                                                                                                                                                                                                                                                                                                                                                                                            45474026841005758779                                                                                                                                                                                                                                                                                                                                                                          
CO2TKCBLKENX   KCBLKENX   KES1400530450001TWO                KES20190225902250000100162000000000011500000C 2019021920190225206206          20190219112137  206206          905011248569    327226        110248567                                R40401000  S40441000                                                                                                                                                                                                                                                                                                                                                                                            41327226573012248569                                                                                                                                                                                                                                                                                                                                                                          
CO2TKCBLKENX   KCBLKENX   KES1400530450001TWO                KES20190225902250000100172000000000040500000C 2019022020190225206206          20190220162716  206206          905116421787    346126        110421776                                R40401000  S40419000                                                                                                                                                                                                                                                                                                                                                                                            46346126IKSJGR421787                                                                                                                                                                                                                                                                                                                                                                          
CO2TKCBLKENX   KCBLKENX   KES1400530450001TWO                KES20190225902250000100182000000000022336000D 20190221201902251102917028      20190221184226  1102917028      905218570687    075510        110570686                                R40478000  S40401000                                                                                                                                                                                                                                                                                                                                                                                            44075510570687                                                                                                                                                                                                                                                                                                                                                                                
CO2TKCBLKENX   KCBLKENX   KES1400530450001TWO                KES20190225902250000100192000000000013500000C 2019022120190225206206          20190221172704  206206          905217563058    346126        110563050                                R40401000  S40419000                                                                                                                                                                                                                                                                                                                                                                                            46346126IKSJHL563058                                                                                                                                                                                                                                                                                                                                                                          
CO2TKCBLKENX   KCBLKENX   KES1400530450001TWO                KES20190225902250000100202000000000012616000D 20190221201902251139837192      20190221182540  1139837192      905218568901    075510        110568900                                R40468000  S40401000                                                                                                                                                                                                                                                                                                                                                                                            44075510568901                                                                                                                                                                                                                                                                                                                                                                                
CO2TKCBLKENX   KCBLKENX   KES1400530450001TWO                KES20190225902250000100212000000000013916000C 2019022220190225                20190222123815                  905312673640    075510        110673639                                R40468000  S40401000                                                                                                                                                                                                                                                                                                                                                                                            44075510673642                                                                                                                                                                                                                                                                                                                                                                                
CO2TKCBLKENX   KCBLKENX   KES1400530450001TWO                KES20190225902250000100222000000000050126000D 20190222201902251102917028      20190222124704  1102917028      905312674504    075510        110674503                                R4047800  S40401000                                                                                                                                                                                                                                                                                                                                                                                             44075510674504                                                                                                                                                                                                                                                                                                                                                                                
CO2TKCBLKENX   KCBLKENX   KES1400530450001TWO                KES20190225902250000100232000000000001100000C 2019021520190225206206          20190215160759  206206          904616758918    736326        109758916                                R40401000  S40457000                                                                                                                                                                                                                                                                                                                                                                                            41736326389006758918                                                                                                                                                                                                                                                                                                                                                                          
CO2TKCBLKENX   KCBLKENX   KES1400530450001TWO                KES20190225902250000100242000000000001200000C 2019022020190225254786925917    20190220150404  254786925917    905115413626    075526        110413624                                R40401000  S40401000                                                                                                                                                                                                                                                                                                                                                                                            44075526IKSJGE413626                                                                                                                                                                                                                                                                                                                                                                          
CO2TKCBLKENX   KCBLKENX   KES1400530450001TWO                KES20190225902250000100252000000000006000000C 2019022120190225206206          20190221095923  206206          905209517118    327226        110517116                                R40401000  S40441000                                                                                                                                                                                                                                                                                                                                                                                            41327226IKSJHB517118                                                                                                                                                                                                                                                                                                                                                                          
CO2TKCBLKENX   KCBLKENX   KES1400530450001TWO                KES20190225902250000100262000000000001000000C 2019022120190225                20190221115647                  905211529311    075510        110529310                                R  S40401000                                                                                                                                                                                                                                                                                                                                                                                                    44075510529313                                                                                                                                                                                                                                                                                                                                                                                
CO2TKCBLKENX   KCBLKENX   KES1400530450001TWO                KES20190225902250000100272000000000000540000C 2019022120190225                20190221180314                  905218566603    075510        110566602                                R40468000  S40401000                                                                                                                                                                                                                                                                                                                                                                                            44075510566605                                                                                                                                                                                                                                                                                                                                                                                
CO2TKCBLKENX   KCBLKENX   KES1400530450001TWO                KES20190225902250000100282000000000050500000C 2019022220190225206206          20190222135538  206206          905313681130    346126        110681121                                R40401000  S40419000                                                                                                                                                                                                                                                                                                                                                                                            46346126IKSJHR681130                                                                                                                                                                                                                                                                                                                                                                          
CO2TKCBLKENX   KCBLKENX   KES1400530450001TWO                KES20190225902250000100292000000000010020000C 2019021520190225206206          20190215155525  206206          904615757634    545326        109757628                                R40401000  S40466000                                                                                                                                                                                                                                                                                                                                                                                            40545326175002757634                                                                                                                                                                                                                                                                                                                                                                          
CO2TKCBLKENX   KCBLKENX   KES1400530450001TWO                KES20190225902250000100302000000000040500000C 2019021920190225206206          20190219114236  206206          905011250714    346126        110250704                                R40401000  S40419000                                                                                                                                                                                                                                                                                                                                                                                            46346126883014250714                                                                                                                                                                                                                                                                                                                                                                          
CO2TKCBLKENX   KCBLKENX   KES1400530450001TWO                KES20190225902250000100312000000000010500000C 2019022020190225206206          20190220150508  206206          905115413736    346126        110413728                                R40401000  S40419000                                                                                                                                                                                                                                                                                                                                                                                            46346126IKSJGF413736                                                                                                                                                                                                                                                                                                            