CO0T                                                            00000000000000000000000CORONA    CS        070802019022519000000                                                                                                                                                                                                                                                                                                                                                                                                                                                                                                                                                                                                                                                                                                                                                                                                                                                                                                                                
CO1TKCBLKENX   KCBLKENX   KES1400530450001VOOMA              KES2019022590225000010001120190225000000000000000000C                                                                                                                                                                                                                                                                                                                                                                                                                                                                                                                                                                                                                                                                                                                                                                                                                                                                                                                                              
CO2TKCBLKENX   KCBLKENX   KES1400530450001VOOMA              KES20190225902250000100022000000000006116000D 201902202019022510017           20190220140719  10017           20190225        1   10        110408024                                R40478000  S40401000                                                                                                                                                                                                                                                                                                                                                                                            110408025                                                                                                                                                                                                                                                                                                                                                                                     
CO2TKCBLKENX   KCBLKENX   KES1400530450001VOOMA              KES20190225902250000100032000000000030146000C 2019022220190225                20190222142210                  20190225        1   10        110683694                                R40478000  S40401000                                                                                                                                                                                                                                                                                                                                                                                            110683699                                                                                                                                                                                                                                                                                                                                                                                     
CO2TKCBLKENX   KCBLKENX   KES1400530450001VOOMA              KES20190225902250000100042000000000007146000C 2019022220190225                20190222142537                  20190225        1   10        110684049                                R40478000  S40401000                                                                                                                                                                                                                                                                                                                                                                                            110684056                                                                                                                                                                                                                                                                                                                                                                                     
CO2TKCBLKENX   KCBLKENX   KES1400530450001VOOMA              KES20190225902250000100052000000000030136000D 2019022220190225254722309263    20190222124313  254722309263    20190225        1   10        110674120                                R40478000  S40401000                                                                                                                                                                                                                                                                                                                                                                                            110674121                                                                                                                                                                                                                                                                                                                                                                                     
CO2TKCBLKENX   KCBLKENX   KES1400530450001VOOMA              KES20190225902250000100062000000000030156000D 2019022220190225254722309263    20190222142303  254722309263    20190225        1   10        110683793                                R40478000  S40401000                                                                                                                                                                                                                                                                                                                                                                                            110683794                                                                                                                                                                                                                                                                                                                                                                                     
CO2TKCBLKENX   KCBLKENX   KES1400530450001VOOMA              KES20190225902250000100072000000000007126000D 201902212019022510017           20190221110010  10017           20190225        1   10        110523425                                R40478000  S40401000                                                                                                                                                                                                                                                                                                                                                                                            110523426                                                                                                                                                                                                                                                                                                                                                                       