CO0T                                                            00000000000000000000000CORONA    CS        070802019022519000000                                                                                                                                                                                                                                                                                                                                                                                                                                                                                                                                                                                                                                                                                                                                                                                                                                                                                                                                
CO1TKCBLKENX   KCBLKENX   KES1400530450001TWO                KES2019022590225001000001120190225000000000000000000C                                                                                                                                                                                                                                                                                                                                                                                                                                                                                                                                                                                                                                                                                                                                                                                                                                                                                                                                              
CO2TKCBLKENX   KCBLKENX   KES1400530450001TWO                KES20190225902250010000022000000042244950000C 2019022120190225                20190221175135                  905217565439                  110565438                                R  S40401000                                                                                                                                                                                                                                                                                                                                                                                                    44075510565441                                                                                                                                                                                                                                                                                                                                                                                
CO2TKCBLKENX   KCBLKENX   KES1400530450001TWO                KES20190225902250010000032000000042184950000C 2019022120190225                20190221191436                  905219574077                  110574076                                R  S40401000                                                                                                                                                                                                                                                                                                                                                                                                    44075510574079                                                                                                                                                                                                                                                                                                                                                                                
CO2TKCBLKENX   KCBLKENX   KES1400530450001TWO                KES20190225902250010000042000000000111000000D 20190220201902251101880538      20190220151440  1101880538      905115414685                  110414684                                R40401000  S40401000                                                                                                                                                                                                                                                                                                                                                                                            44075510414685                                                                                                                                                                                                                                                                                                                                                                                
CO2TKCBLKENX   KCBLKENX   KES1400530450001TWO                KES20190225902250010000052000000002233600000D 20190221201902251102917028      20190221184226  1102917028      905218570687                  110570686                                R40478000  S40401000                                                                                                                                                                                                                                                                                                                                                                                            44075510570687                                                                                                                                                                                                                                                                                                                                                                                
CO2TKCBLKENX   KCBLKENX   KES1400530450001TWO                KES20190225902250010000062000000001261600000D 20190221201902251139837192      20190221182540  1139837192      905218568901                  110568900                                R40468000  S40401000                                                                                                                                                                                                                                                                                                                                                                                            44075510568901                                                                                                                                                                                                                                                                                                                                                                                
CO2TKCBLKENX   KCBLKENX   KES1400530450001TWO                KES20190225902250010000072000000001391600000C 2019022220190225                20190222123815                  905312673640                  110673639                                R40468000  S40401000                                                                                                                                                                                                                                                                                                                                                                                            44075510673642                                                                                                                                                                                                                                                                                                                                                                                
CO2TKCBLKENX   KCBLKENX   KES1400530450001TWO                KES20190225902250010000082000000005012600000D 20190222201902251102917028      20190222124704  1102917028      905312674504                  110674503                                R4047800  S40401000                                                                                                                                                                                                                                                                                                                                                                                             44075510674504                                                                                                                                                                                                                                                                                                                                                                                
CO2TKCBLKENX   KCBLKENX   KES1400530450001TWO                KES20190225902250010000092000000000100000000C 2019022120190225                20190221115647                  905211529311                  110529310                                R  S40401000                                                                                                                                                                                                                                                                                                                                                                                                    44075510529313                                                                                                                                                                                                                                                                                                                                                                                
CO2TKCBLKENX   KCBLKENX   KES1400530450001TWO                KES20190225902250010000102000000000054000000C 2019022120190225                20190221180314                  905218566603                  110566602                                R40468000  S40401000                                                                                                                                                                                                                                                                                                                                                                                            44075510566605                                                                                                                                                                                                                                                                                                                                                                                
CO2TKCBLKENX   KCBLKENX   KES1400530450001TWO                KES20190225902250010000112000000000054000000D 20190221201902251108696325      20190221180314  1108696325      905218566603                  110566602                                R40468000  S40401000                                                                                                                                                                                                                                                                                                                                                                                            44075510566603                                                                                                                                                                                                                                                                                                                                                                                
CO2TKCBLKENX   KCBLKENX   KES1400530450001TWO                KES20190225902250010000122000000000120000000D 20190220201902251101880538      20190220150404  1101880538      905115413625                  110413624                                R40401000  S40401000                                                                                                                                                                                                                                                                                                                                                                                            44075510413625                                                                                                                                                                                                                                                                                                                                                                                
CO2TKCBLKENX   KCBLKENX   KES1400530450001TWO                KES20190225902250010000132000000031084950000C 2019022120190225                20190221191441                  905219574086                  110574085                                R40468000  S40401000                                                                                                                                                                                                                                                                                                                                                                                            44075510574088                                                                                                                                                                                                                                                                                                                                                                                
CO2TKCBLKENX   KCBLKENX   KES1400530450001TWO                KES20190225902250010000142000000031084950000D 2019022220190225KES140310002000120190222113312  KES1403100020001905311667319                  110667318                                R40468000  S40401000                                                                                                                                                                                                                                                                                                                                                                                            44075510667319                                                                                                                                                                                                                                                                                                                                                                                
CO2TKCBLKENX   KCBLKENX   KES1400530450001TWO                KES20190225902250010000152000000000511600000D 20190222201902251102917028      20190222122700  1102917028      905312672521                  110672520                                R40478000  S40401000                                                                                                                                                                                                                                                                                                                                                                                            44075510672521                                                                                                                                                                                                                                                                                                                                                                                
CO2TKCBLKENX   KCBLKENX   KES1400530450001TWO                KES20190225902250010000162000000001391600000D 20190222201902251139837192      20190222123815  1139837192      905312673640                  110673639                                R40468000  S40401000                                                                                                                                                                                                                                                                                                                                                                                            44075510673640                                                                                                                                                                                                                                                                                                                                                                                
CO2TKCBLKENX   KCBLKENX   KES1400530450001TWO                KES20190225902250010000172000000001391600000D 20190222201902251139837192      20190222165108  1139837192      905316698858                  110698857                                R40468000  S40401000                                                                                                                                                                                                                                                                                                                                                                                            44075510698858                                                                                                                                                                                                                                                                                                                                                                                
CO2TKCBLKENX   KCBLKENX   KES1400530450001TWO                KES20190225902250010000182000000042244950000D 2019022120190225KES140310002000120190221175135  KES1403100020001905217565439                  110565438                                R  S40401000                                                                                                                                                                                                                                                                                                                                                                                                    44075510565439                                                                                                                                                                                                                                                                                                                                                                                
CO2TKCBLKENX   KCBLKENX   KES1400530450001TWO                KES20190225902250010000192000000000121000000D 20190220201902251101880538      20190220145645  1101880538      905114412914                  110412913                                R40401000  S40401000                                                                                                                                                                                                                                                                                                                                                                                            44075510412914                                                                                                                                                                                                                                                                                                                                                                                
CO2TKCBLKENX   KCBLKENX   KES1400530450001TWO                KES20190225902250010000202000000000100000000D 20190221201902251139837192      20190221115646  1139837192      905211529311                  110529310                                R  S40401000                                                                                                                                                                                                                                                                                                                                                                                                    44075510529311                                                                                                                                                                                                                                                                                                                                                                                
CO2TKCBLKENX   KCBLKENX   KES1400530450001TWO                KES20190225902250010000212000000042184950000D 2019022120190225KES140310002000120190221191436  KES1403100020001905219574077                  110574076                                R  S40401000                                                                                                                                                                                                                                                                                                                                                                                                    44075510574077                                                                                                                                                                                                                                                                                                                                                                                
CO2TKCBLKENX   KCBLKENX   KES1400530450001TWO                KES20190225902250010000222000000031084950000C 2019022220190225                20190222113313                  905311667319                  110667318                                R40468000  S40401000                                                                                                                                                                                                                                                                                                                                                                                            44075510667323                                                                                                                                                                                                                                                                                                                                                                                
CO2TKCBLKENX   KCBLKENX   KES1400530450001TWO                KES20190225902250010000232000000001391600000C 2019022220190225                20190222165108                  905316698858                  110698857                                R40468000  S40401000                                                                                                                                                                                                                                                                                                                                                                                            44075510698860                                                                                                                                                                                                                                                                                                                                                                                
CO2TKCBLKENX   KCBLKENX   KES1400530450001TWO                KES20190225902250010000242000000000111000000D 20190220201902251101880538      20190220142309  1101880538      905114409614                  110409613                                R40401000  S40401000                                                                                                                                                                                                                                                                                                                                                                                            44075510409614                                                                                                                                                                                                                                                                                                                                                                                
CO2TKCBLKENX   KCBLKENX   KES1400530450001TWO                KES20190225902250010000252000000001261600000C 2019022120190225                20190221182541                  905218568901                  110568900                                R40468000  S40401000                                                                                                                                                                                                                                                                                                                                                                                            44075510568903                                                                                                                                                                                                                                                                                                                                                                                
CO2TKCBLKENX   KCBLKENX   KES1400530450001TWO                KES20190225902250010000262000000031084950000D 2019022120190225KES140310002000120190221191441  KES1403100020001905219574086                  110574085                                R40468000  S40401000                                                                                                                                                                                                                                                                                                                                                                                            44075510574086                                                                                                                                                                                                                                                                                                                                                                                
CO2TKCBLKENX   KCBLKENX   KES1400530450001TWO                KES20190225902250010000272000000309818000000C 2019022520190225SETTLEMENT                                                                                                                                                                                                                                                                                                                                                                                                                                                                                                                                                                                                                                                                                                                                                                                                                                                                                                                           
CO3TKCBLKENX   KCBLKENX   KES1400530450001TWO                KES2019022590225001000028320190225000000000000000000C                                                                                                                                                                                                                                                                                                                                                                                                                                                                                                                                                                                                                                                                                                                                                                                                                                                                                                                                              
