CO0T                                                            00000000000000000000000CORONA    CS        070802019022519000000                                                                                                                                                                                                                                                                                                                                                                                                                                                                                                                                                                                                                                                                                                                                                                                                                                                                                                                                
CO1TKCBLKENX   KCBLKENX   KES1400530450001VOOMA              KES2019022590225001000001120190225000000000000000000C                                                                                                                                                                                                                                                                                                                                                                                                                                                                                                                                                                                                                                                                                                                                                                                                                                                                                                                                              
CO2TKCBLKENX   KCBLKENX   KES1400530450001VOOMA              KES20190225902250010000022000000000100000000C 2019021520190225
CO2TKCBLKENX   KCBLKENX   KES1400530450001VOOMA              KES20190225902250010000032000000000600000000C 2019021520190225
CO2TKCBLKENX   KCBLKENX   KES1400530450001VOOMA              KES20190225902250010000042000000000110000000C 2019021520190225
CO2TKCBLKENX   KCBLKENX   KES1400530450001VOOMA              KES20190225902250010000052000000001150000000C 2019021920190225
CO2TKCBLKENX   KCBLKENX   KES1400530450001VOOMA              KES20190225902250010000062000000001050000000C 2019022020190225
CO2TKCBLKENX   KCBLKENX   KES1400530450001VOOMA              KES20190225902250010000072000000000611600000D 2019022020190225
CO2TKCBLKENX   KCBLKENX   KES1400530450001VOOMA              KES20190225902250010000082000000000111000000C 2019022020190225
CO2TKCBLKENX   KCBLKENX   KES1400530450001VOOMA              KES20190225902250010000092000000000600000000C 2019022120190225
CO2TKCBLKENX   KCBLKENX   KES1400530450001VOOMA              KES20190225902250010000102000000001150000000C 2019022120190225
CO2TKCBLKENX   KCBLKENX   KES1400530450001VOOMA              KES20190225902250010000112000000000100000000C 2019022120190225
CO2TKCBLKENX   KCBLKENX   KES1400530450001VOOMA              KES20190225902250010000122000000003014600000C 2019022220190225
CO2TKCBLKENX   KCBLKENX   KES1400530450001VOOMA              KES20190225902250010000132000000000714600000C 2019022220190225
CO2TKCBLKENX   KCBLKENX   KES1400530450001VOOMA              KES20190225902250010000142000000003050000000C 2019022220190225
CO2TKCBLKENX   KCBLKENX   KES1400530450001VOOMA              KES20190225902250010000152000000003013600000D 2019022220190225
CO2TKCBLKENX   KCBLKENX   KES1400530450001VOOMA              KES20190225902250010000162000000003015600000D 2019022220190225
CO2TKCBLKENX   KCBLKENX   KES1400530450001VOOMA              KES20190225902250010000172000000000500000000C 2019021520190225
CO2TKCBLKENX   KCBLKENX   KES1400530450001VOOMA              KES20190225902250010000182000000001150000000C 2019021920190225
CO2TKCBLKENX   KCBLKENX   KES1400530450001VOOMA              KES20190225902250010000192000000004050000000C 2019022020190225
CO2TKCBLKENX   KCBLKENX   KES1400530450001VOOMA              KES20190225902250010000202000000000712600000D 2019022120190225
CO2TKCBLKENX   KCBLKENX   KES1400530450001VOOMA              KES20190225902250010000212000000001111600000D 2019022220190225
CO2TKCBLKENX   KCBLKENX   KES1400530450001VOOMA              KES20190225902250010000222000000000422600000D 2019022020190225
CO2TKCBLKENX   KCBLKENX   KES1400530450001VOOMA              KES20190225902250010000232000000900011600000D 2019022220190225
CO2TKCBLKENX   KCBLKENX   KES1400530450001VOOMA              KES20190225902250010000242000000002011600000D 2019022020190225
CO2TKCBLKENX   KCBLKENX   KES1400530450001VOOMA              KES20190225902250010000252000000000621600000D 2019022020190225
CO2TKCBLKENX   KCBLKENX   KES1400530450001VOOMA              KES20190225902250010000262000000001350000000C 2019022120190225
CO2TKCBLKENX   KCBLKENX   KES1400530450001VOOMA              KES20190225902250010000272000000001391600000C 2019022220190225
CO2TKCBLKENX   KCBLKENX   KES1400530450001VOOMA              KES20190225902250010000282000000000520000000D 2019022020190225
CO2TKCBLKENX   KCBLKENX   KES1400530450001VOOMA              KES20190225902250010000292000000000422600000D 2019022020190225
CO2TKCBLKENX   KCBLKENX   KES1400530450001VOOMA              KES20190225902250010000302000000000322600000D 2019022520190225
CO2TKCBLKENX   KCBLKENX   KES1400530450001VOOMA              KES20190225902250010000312000000000110000000C 2019021520190225
CO2TKCBLKENX   KCBLKENX   KES1400530450001VOOMA              KES20190225902250010000322000000000630600000D 2019022020190225
CO2TKCBLKENX   KCBLKENX   KES1400530450001VOOMA              KES20190225902250010000332000000000120000000C 2019022020190225
CO2TKCBLKENX   KCBLKENX   KES1400530450001VOOMA              KES20190225902250010000342000000000600000000C 2019022120190225
CO2TKCBLKENX   KCBLKENX   KES1400530450001VOOMA              KES20190225902250010000352000000001111600000D 2019022220190225
CO2TKCBLKENX   KCBLKENX   KES1400530450001VOOMA              KES20190225902250010000362000000003012600000D 2019022220190225
CO2TKCBLKENX   KCBLKENX   KES1400530450001VOOMA              KES20190225902250010000372000000005050000000C 2019022220190225
CO2TKCBLKENX   KCBLKENX   KES1400530450001VOOMA              KES20190225902250010000382000000000714600000D 2019022220190225
CO2TKCBLKENX   KCBLKENX   KES1400530450001VOOMA              KES20190225902250010000392000000001014600000D 2019022220190225
CO2TKCBLKENX   KCBLKENX   KES1400530450001VOOMA              KES20190225902250010000402000000001002000000C 2019021520190225
CO2TKCBLKENX   KCBLKENX   KES1400530450001VOOMA              KES20190225902250010000412000000004050000000C 2019021920190225
CO2TKCBLKENX   KCBLKENX   KES1400530450001VOOMA              KES20190225902250010000422000000001050000000C 2019022020190225
CO2TKCBLKENX   KCBLKENX   KES1400530450001VOOMA              KES20190225902250010000432000000001391600000D 2019022220190225
CO2TKCBLKENX   KCBLKENX   KES1400530450001VOOMA              KES20190225902250010000442000000000238000000C 2019021520190225
CO2TKCBLKENX   KCBLKENX   KES1400530450001VOOMA              KES20190225902250010000452000000006050000000C 2019021820190225
CO2TKCBLKENX   KCBLKENX   KES1400530450001VOOMA              KES20190225902250010000462000000003050000000C 2019022020190225
CO2TKCBLKENX   KCBLKENX   KES1400530450001VOOMA              KES20190225902250010000472000000004050000000C 2019022020190225
CO2TKCBLKENX   KCBLKENX   KES1400530450001VOOMA              KES20190225902250010000482000000009050000000C 2019022120190225
CO2TKCBLKENX   KCBLKENX   KES1400530450001VOOMA              KES20190225902250010000492000000003014600000D 2019022220190225
CO2TKCBLKENX   KCBLKENX   KES1400530450001VOOMA              KES20190225902250010000502000000000713600000D 2019022220190225
CO2TKCBLKENX   KCBLKENX   KES1400530450001VOOMA              KES20190225902250010000512000000003016600000C 2019022220190225
CO2TKCBLKENX   KCBLKENX   KES1400530450001VOOMA              KES20190225902250010000522000000000120000000C 2019021520190225
CO2TKCBLKENX   KCBLKENX   KES1400530450001VOOMA              KES20190225902250010000532000000000110000000C 2019021520190225
CO2TKCBLKENX   KCBLKENX   KES1400530450001VOOMA              KES20190225902250010000542000000000511600000D 2019022020190225
CO2TKCBLKENX   KCBLKENX   KES1400530450001VOOMA              KES20190225902250010000552000000000121000000C 2019022020190225
CO2TKCBLKENX   KCBLKENX   KES1400530450001VOOMA              KES20190225902250010000562000000001351600000D 2019022220190225
CO2TKCBLKENX   KCBLKENX   KES1400530450001VOOMA              KES20190225902250010000572000000001391600000D 2019022220190225
CO2TKCBLKENX   KCBLKENX   KES1400530450001VOOMA              KES20190225902250010000582000000003016600000D 2019022220190225
CO2TKCBLKENX   KCBLKENX   KES1400530450001VOOMA              KES20190225902250010000592000000000316600000D 2019022520190225
CO2TKCBLKENX   KCBLKENX   KES1400530450001VOOMA              KES20190225902250010000602000000001111600000C 2019022220190225
CO2TKCBLKENX   KCBLKENX   KES1400530450001VOOMA              KES20190225902250010000612000000002050000000C 2019021920190225
CO2TKCBLKENX   KCBLKENX   KES1400530450001VOOMA              KES20190225902250010000622000000000511600000D 2019022120190225
CO2TKCBLKENX   KCBLKENX   KES1400530450001VOOMA              KES20190225902250010000632000000000422600000D 2019022020190225
CO2TKCBLKENX   KCBLKENX   KES1400530450001VOOMA              KES20190225902250010000642000000000200000000C 2019022120190225
CO2TKCBLKENX   KCBLKENX   KES1400530450001VOOMA              KES20190225902250010000652000000000320000000C 2019022120190225
CO2TKCBLKENX   KCBLKENX   KES1400530450001VOOMA              KES20190225902250010000662000000000511600000D 2019022220190225
CO2TKCBLKENX   KCBLKENX   KES1400530450001VOOMA              KES20190225902250010000672000000001012600000D 2019022220190225
CO2TKCBLKENX   KCBLKENX   KES1400530450001VOOMA              KES20190225902250010000682000000001391600000C 2019022220190225
CO2TKCBLKENX   KCBLKENX   KES1400530450001VOOMA              KES20190225902250010000692000000000711600000D 2019022120190225
CO2TKCBLKENX   KCBLKENX   KES1400530450001VOOMA              KES20190225902250010000702000000002050000000C 2019022020190225
CO2TKCBLKENX   KCBLKENX   KES1400530450001VOOMA              KES20190225902250010000712000000000111000000C 2019022020190225
CO2TKCBLKENX   KCBLKENX   KES1400530450001VOOMA              KES20190225902250010000722000000003050000000C 2019022020190225
CO2TKCBLKENX   KCBLKENX   KES1400530450001VOOMA              KES20190225902250010000732000000002050000000C 2019022120190225
CO2TKCBLKENX   KCBLKENX   KES1400530450001VOOMA              KES20190225902250010000742000000001391600000D 2019022220190225
CO2TKCBLKENX   KCBLKENX   KES1400530450001VOOMA              KES20190225902250010000752000000003016600000D 2019022220190225
CO2TKCBLKENX   KCBLKENX   KES1400530450001VOOMA              KES20190225902250010000762000000000600000000C 2019022120190225
