CO0T                                                            00000000000000000000000CORONA    CS        070802019022519000000                                                                                                                                                                                                                                                                                                                                                                                                                                                                                                                                                                                                                                                                                                                                                                                                                                                                                                                                
CO1TKCBLKENX   KCBLKENX   KES1400530450001VOOMA              KES2019022590225001000001120190225000000000000000000C                                                                                                                                                                                                                                                                                                                                                                                                                                                                                                                                                                                                                                                                                                                                                                                                                                                                                                                                              
CO2TKCBLKENX   KCBLKENX   KES1400530450001VOOMA              KES20190225902250010000022000000000100000000C 20190215201902251109753799      20190215155720  1109753799      904615757842                  109757840                                R40401000  S40403000                                                                                                                                                                                                                                                                                                                                                                                            454740263757842                                                                                                                                                                                                                                                                                                                                                                               
CO2TKCBLKENX   KCBLKENX   KES1400530450001VOOMA              KES20190225902250010000032000000000600000000C 20190215201902251126929891      20190215161234  1126929891      904616759351                  109759348                                R40401000  S40412000                                                                                                                                                                                                                                                                                                                                                                                            44597126408007759351                                                                                                                                                                                                                                                                                                                                                                          
CO2TKCBLKENX   KCBLKENX   KES1400530450001VOOMA              KES20190225902250010000042000000000110000000C 2019021520190225206206          20190215162426  206206          904616760533                  109760531                                R40401000  S40457000                                                                                                                                                                                                                                                                                                                                                                                            41736326892009760533                                                                                                                                                                                                                                                                                                                                                                          
CO2TKCBLKENX   KCBLKENX   KES1400530450001VOOMA              KES20190225902250010000052000000001150000000C 2019021920190225206206          20190219110105  206206          905011246509                  110246507                                R40401000  S40441000                                                                                                                                                                                                                                                                                                                                                                                            41327226373011246509                                                                                                                                                                                                                                                                                                                                                                          
CO2TKCBLKENX   KCBLKENX   KES1400530450001VOOMA              KES20190225902250010000062000000001050000000C 2019022020190225206206          20190220114448  206206          905111393456                  110393450                                R40401000  S40419000                                                                                                                                                                                                                                                                                                                                                                                            46346126IKSJFU393456                                                                                                                                                                                                                                                                                                                                                                          
CO2TKCBLKENX   KCBLKENX   KES1400530450001VOOMA              KES20190225902250010000072000000000611600000D 201902202019022510017           20190220140719  10017           905114408025                  110408024                                R40478000  S40401000                                                                                                                                                                                                                                                                                                                                                                                            110408025                                                                                                                                                                                                                                                                                                                                                                                     
CO2TKCBLKENX   KCBLKENX   KES1400530450001VOOMA              KES20190225902250010000082000000000111000000C 2019022020190225254786925917    20190220142309  254786925917    905114409615                  110409613                                R40401000  S40401000                                                                                                                                                                                                                                                                                                                                                                                            44075526IKSJGC409615                                                                                                                                                                                                                                                                                                                                                                          
CO2TKCBLKENX   KCBLKENX   KES1400530450001VOOMA              KES20190225902250010000092000000000600000000C 2019022120190225206206          20190221094038  206206          905209515151                  110515149                                R40401000  S40441000                                                                                                                                                                                                                                                                                                                                                                                            41327226IKSJGZ515151                                                                                                                                                                                                                                                                                                                                                                          
CO2TKCBLKENX   KCBLKENX   KES1400530450001VOOMA              KES20190225902250010000102000000001150000000C 2019022120190225206206          20190221123859  206206          905212533736                  110533731                                R40401000  S40441000                                                                                                                                                                                                                                                                                                                                                                                            41327226IKSJHD533736                                                                                                                                                                                                                                                                                                                                                                          
CO2TKCBLKENX   KCBLKENX   KES1400530450001VOOMA              KES20190225902250010000112000000000100000000C 20190221201902251109855338      20190221164057  1109855338      905216558462                  110558460                                R40401000  S40412000                                                                                                                                                                                                                                                                                                                                                                                            44597126IKSJHF558462                                                                                                                                                                                                                                                                                                                                                                          
CO2TKCBLKENX   KCBLKENX   KES1400530450001VOOMA              KES20190225902250010000122000000003014600000C 2019022220190225                20190222142210                  905314683695                  110683694                                R40478000  S40401000                                                                                                                                                                                                                                                                                                                                                                                            110683699                                                                                                                                                                                                                                                                                                                                                                                     
CO2TKCBLKENX   KCBLKENX   KES1400530450001VOOMA              KES20190225902250010000132000000000714600000C 2019022220190225                20190222142537                  905314684050                  110684049                                R40478000  S40401000                                                                                                                                                                                                                                                                                                                                                                                            110684056                                                                                                                                                                                                                                                                                                                                                                                     
CO2TKCBLKENX   KCBLKENX   KES1400530450001VOOMA              KES20190225902250010000142000000003050000000C 2019022220190225206206          20190222175843  206206          905317705798                  110705796                                R40401000  S40441000                                                                                                                                                                                                                                                                                                                                                                                            41327226IKSJIF705798                                                                                                                                                                                                                                                                                                                                                                          
CO2TKCBLKENX   KCBLKENX   KES1400530450001VOOMA              KES20190225902250010000152000000003013600000D 2019022220190225254722309263    20190222124313  254722309263    905312674121                  110674120                                R40478000  S40401000                                                                                                                                                                                                                                                                                                                                                                                            110674121                                                                                                                                                                                                                                                                                                                                                                                     
CO2TKCBLKENX   KCBLKENX   KES1400530450001VOOMA              KES20190225902250010000162000000003015600000D 2019022220190225254722309263    20190222142303  254722309263    905314683794                  110683793                                R40478000  S40401000                                                                                                                                                                                                                                                                                                                                                                                            110683794                                                                                                                                                                                                                                                                                                                                                                                     
CO2TKCBLKENX   KCBLKENX   KES1400530450001VOOMA              KES20190225902250010000172000000000500000000C 20190215201902251109753799      20190215160627  1109753799      904616758779                  109758777                                R40401000  S40403000                                                                                                                                                                                                                                                                                                                                                                                            45474026841005758779                                                                                                                                                                                                                                                                                                                                                                          
CO2TKCBLKENX   KCBLKENX   KES1400530450001VOOMA              KES20190225902250010000182000000001150000000C 2019021920190225206206          20190219112137  206206          905011248569                  110248567                                R40401000  S40441000                                                                                                                                                                                                                                                                                                                                                                                            41327226573012248569                                                                                                                                                                                                                                                                                                                                                                          
CO2TKCBLKENX   KCBLKENX   KES1400530450001VOOMA              KES20190225902250010000192000000004050000000C 2019022020190225206206          20190220162716  206206          905116421787                  110421776                                R40401000  S40419000                                                                                                                                                                                                                                                                                                                                                                                            46346126IKSJGR421787                                                                                                                                                                                                                                                                                                                                                                          
CO2TKCBLKENX   KCBLKENX   KES1400530450001VOOMA              KES20190225902250010000202000000000712600000D 201902212019022510017           20190221110010  10017           905211523426                  110523425                                R40478000  S40401000                                                                                                                                                                                                                                                                                                                                                                                            110523426                                                                                                                                                                                                                                                                                                                                                                                     
CO2TKCBLKENX   KCBLKENX   KES1400530450001VOOMA              KES20190225902250010000212000000001111600000D 2019022220190225254722309263    20190222090106  254722309263    905309653289                  110653288                                R40478000  S40401000                                                                                                                                                                                                                                                                                                                                                                                            110653289                                                                                                                                                                                                                                                                                                                                                                                     
CO2TKCBLKENX   KCBLKENX   KES1400530450001VOOMA              KES20190225902250010000222000000000422600000D 201902202019022510017           20190220140001  10017           905114407283                  110407282                                R40478000  S40401000                                                                                                                                                                                                                                                                                                                                                                                            110407283                                                                                                                                                                                                                                                                                                                                                                                     
CO2TKCBLKENX   KCBLKENX   KES1400530450001VOOMA              KES20190225902250010000232000000900011600000D 2019022220190225888111111111    20190222125951  888111111111    905312675743                  110675742                                R40453000  S40401000                                                                                                                                                                                                                                                                                                                                                                                            110675743                                                                                                                                                                                                                                                                                                                                                                                     
CO2TKCBLKENX   KCBLKENX   KES1400530450001VOOMA              KES20190225902250010000242000000002011600000D 2019022020190225888111111111    20190220124517  888111111111    905112399628                  110399627                                R40478000  S40401000                                                                                                                                                                                                                                                                                                                                                                                            110399628                                                                                                                                                                                                                                                                                                                                                                                     
CO2TKCBLKENX   KCBLKENX   KES1400530450001VOOMA              KES20190225902250010000252000000000621600000D 201902202019022510017           20190220141228  10017           905114408540                  110408539                                R40478000  S40401000                                                                                                                                                                                                                                                                                                                                                                                            110408540                                                                                                                                                                                                                                                                                                                                                                                     
CO2TKCBLKENX   KCBLKENX   KES1400530450001VOOMA              KES20190225902250010000262000000001350000000C 2019022120190225206206          20190221172704  206206          905217563058                  110563050                                R40401000  S40419000                                                                                                                                                                                                                                                                                                                                                                                            46346126IKSJHL563058                                                                                                                                                                                                                                                                                                                                                                          
CO2TKCBLKENX   KCBLKENX   KES1400530450001VOOMA              KES20190225902250010000272000000001391600000C 2019022220190225                20190222144124                  905314685586                  110685585                                R40478000  S40401000                                                                                                                                                                                                                                                                                                                                                                                            110685590                                                                                                                                                                                                                                                                                                                                                                                     
CO2TKCBLKENX   KCBLKENX   KES1400530450001VOOMA              KES20190225902250010000282000000000520000000D 2019022020190225888111111111    20190220121624  888111111111    905112396665                  110396664                                R40478000  S40401000                                                                                                                                                                                                                                                                                                                                                                                            110396665                                                                                                                                                                                                                                                                                                                                                                                     
CO2TKCBLKENX   KCBLKENX   KES1400530450001VOOMA              KES20190225902250010000292000000000422600000D 201902202019022510017           20190220132108  10017           905113403303                  110403302                                R40478000  S40401000                                                                                                                                                                                                                                                                                                                                                                                            110403303                                                                                                                                                                                                                                                                                                                                                                                     
CO2TKCBLKENX   KCBLKENX   KES1400530450001VOOMA              KES20190225902250010000302000000000322600000D 2019022520190225254722309263    20190225104712  254722309263    905610140255                  111140254                                R40478000  S40401000                                                                                                                                                                                                                                                                                                                                                                                            110140255                                                                                                                                                                                                                                                                                                                                                                                     
CO2TKCBLKENX   KCBLKENX   KES1400530450001VOOMA              KES20190225902250010000312000000000110000000C 2019021520190225206206          20190215160759  206206          904616758918                  109758916                                R40401000  S40457000                                                                                                                                                                                                                                                                                                                                                                                            41736326389006758918                                                                                                                                                                                                                                                                                                                                                                          
CO2TKCBLKENX   KCBLKENX   KES1400530450001VOOMA              KES20190225902250010000322000000000630600000D 201902202019022510017           20190220140620  10017           905114407927                  110407926                                R40478000  S40401000                                                                                                                                                                                                                                                                                                                                                                                            110407927                                                                                                                                                                                                                                                                                                                                                                                     
CO2TKCBLKENX   KCBLKENX   KES1400530450001VOOMA              KES20190225902250010000332000000000120000000C 2019022020190225254786925917    20190220150404  254786925917    905115413626                  110413624                                R40401000  S40401000                                                                                                                                                                                                                                                                                                                                                                                            44075526IKSJGE413626                                                                                                                                                                                                                                                                                                                                                                          
CO2TKCBLKENX   KCBLKENX   KES1400530450001VOOMA              KES20190225902250010000342000000000600000000C 2019022120190225206206          20190221095923  206206          905209517118                  110517116                                R40401000  S40441000                                                                                                                                                                                                                                                                                                                                                                                            41327226IKSJHB517118                                                                                                                                                                                                                                                                                                                                                                          
CO2TKCBLKENX   KCBLKENX   KES1400530450001VOOMA              KES20190225902250010000352000000001111600000D 2019022220190225254722309263    20190222102736  254722309263    905310661255                  110661254                                R40478000  S40401000                                                                                                                                                                                                                                                                                                                                                                                            110661255                                                                                                                                                                                                                                                                                                                                                                                     
CO2TKCBLKENX   KCBLKENX   KES1400530450001VOOMA              KES20190225902250010000362000000003012600000D 2019022220190225254722309263    20190222123617  254722309263    905312673442                  110673441                                R40478000  S40401000                                                                                                                                                                                                                                                                                                                                                                                            110673442                                                                                                                                                                                                                                                                                                                                                                                     
CO2TKCBLKENX   KCBLKENX   KES1400530450001VOOMA              KES20190225902250010000372000000005050000000C 2019022220190225206206          20190222135538  206206          905313681130                  110681121                                R40401000  S40419000                                                                                                                                                                                                                                                                                                                                                                                            46346126IKSJHR681130                                                                                                                                                                                                                                                                                                                                                                          
CO2TKCBLKENX   KCBLKENX   KES1400530450001VOOMA              KES20190225902250010000382000000000714600000D 201902222019022510017           20190222142536  10017           905314684050                  110684049                                R40478000  S40401000                                                                                                                                                                                                                                                                                                                                                                                            110684050                                                                                                                                                                                                                                                                                                                                                                                     
CO2TKCBLKENX   KCBLKENX   KES1400530450001VOOMA              KES20190225902250010000392000000001014600000D 2019022220190225254722309263    20190222144423  254722309263    905314685890                  110685889                                R40478000  S40401000                                                                                                                                                                                                                                                                                                                                                                                            110685890                                                                                                                                                                                                                                                                                                                                                                                     
CO2TKCBLKENX   KCBLKENX   KES1400530450001VOOMA              KES20190225902250010000402000000001002000000C 2019021520190225206206          20190215155525  206206          904615757634                  109757628                                R40401000  S40466000                                                                                                                                                                                                                                                                                                                                                                                            40545326175002757634                                                                                                                                                                                                                                                                                                                                                                          
CO2TKCBLKENX   KCBLKENX   KES1400530450001VOOMA              KES20190225902250010000412000000004050000000C 2019021920190225206206          20190219114236  206206          905011250714                  110250704                                R40401000  S40419000                                                                                                                                                                                                                                                                                                                                                                                            46346126883014250714                                                                                                                                                                                                                                                                                                                                                                          
CO2TKCBLKENX   KCBLKENX   KES1400530450001VOOMA              KES20190225902250010000422000000001050000000C 2019022020190225206206          20190220150508  206206          905115413736                  110413728                                R40401000  S40419000                                                                                                                                                                                                                                                                                                                                                                                            46346126IKSJGF413736                                                                                                                                                                                                                                                                                                                                                                          
CO2TKCBLKENX   KCBLKENX   KES1400530450001VOOMA              KES20190225902250010000432000000001391600000D 2019022220190225254722309263    20190222144209  254722309263    905314685663                  110685662                                R40478000  S40401000                                                                                                                                                                                                                                                                                                                                                                                            110685663                                                                                                                                                                                                                                                                                                                                                                                     
CO2TKCBLKENX   KCBLKENX   KES1400530450001VOOMA              KES20190225902250010000442000000000238000000C 20190215201902251126929891      20190215154841  1126929891      904615756962                  109756960                                R40401000  S40412000                                                                                                                                                                                                                                                                                                                                                                                            44597126252001756962                                                                                                                                                                                                                                                                                                                                                                          
CO2TKCBLKENX   KCBLKENX   KES1400530450001VOOMA              KES20190225902250010000452000000006050000000C 2019021820190225206206          20190218152401  206206          904915135430                  110135428                                R40401000  S40441000                                                                                                                                                                                                                                                                                                                                                                                            41327226347010135430                                                                                                                                                                                                                                                                                                                                                                          
CO2TKCBLKENX   KCBLKENX   KES1400530450001VOOMA              KES20190225902250010000462000000003050000000C 2019022020190225206206          20190220161047  206206          905116420177                  110420173                                R40401000  S40419000                                                                                                                                                                                                                                                                                                                                                                                            46346126IKSJGK420177                                                                                                                                                                                                                                                                                                                                                                          
CO2TKCBLKENX   KCBLKENX   KES1400530450001VOOMA              KES20190225902250010000472000000004050000000C 2019022020190225206206          20190220164020  206206          905116423072                  110423066                                R40401000  S40419000                                                                                                                                                                                                                                                                                                                                                                                            46346126IKSJGS423072                                                                                                                                                                                                                                                                                                                                                                          
CO2TKCBLKENX   KCBLKENX   KES1400530450001VOOMA              KES20190225902250010000482000000009050000000C 2019022120190225206206          20190221131010  206206          905213536953                  110536949                                R40401000  S40478000                                                                                                                                                                                                                                                                                                                                                                                            50415826IKSJHE536953                                                                                                                                                                                                                                                                                                                                                                          
CO2TKCBLKENX   KCBLKENX   KES1400530450001VOOMA              KES20190225902250010000492000000003014600000D 2019022220190225254722309263    20190222142209  254722309263    905314683695                  110683694                                R40478000  S40401000                                                                                                                                                                                                                                                                                                                                                                                            110683695                                                                                                                                                                                                                                                                                                                                                                                     
CO2TKCBLKENX   KCBLKENX   KES1400530450001VOOMA              KES20190225902250010000502000000000713600000D 201902222019022510017           20190222142410  10017           905314683901                  110683899                                R40478000  S40401000                                                                                                                                                                                                                                                                                                                                                                                            110683901                                                                                                                                                                                                                                                                                                                                                                                     
CO2TKCBLKENX   KCBLKENX   KES1400530450001VOOMA              KES20190225902250010000512000000003016600000C 2019022220190225                20190222144508                  905314685962                  110685961                                R40478000  S40401000                                                                                                                                                                                                                                                                                                                                                                                            110685970                                                                                                                                                                                                                                                                                                                                                                                     
CO2TKCBLKENX   KCBLKENX   KES1400530450001VOOMA              KES20190225902250010000522000000000120000000C 20190215201902251109753799      20190215160441  1109753799      904616758597                  109758595                                R40401000  S40403000                                                                                                                                                                                                                                                                                                                                                                                            45474026127004758597                                                                                                                                                                                                                                                                                                                                                                          
CO2TKCBLKENX   KCBLKENX   KES1400530450001VOOMA              KES20190225902250010000532000000000110000000C 2019021520190225206206          20190215161321  206206          904616759444                  109759442                                R40401000  S40457000                                                                                                                                                                                                                                                                                                                                                                                            41736326916008759444                                                                                                                                                                                                                                                                                                                                                                          
CO2TKCBLKENX   KCBLKENX   KES1400530450001VOOMA              KES20190225902250010000542000000000511600000D 2019022020190225888111111111    20190220121753  888111111111    905112396816                  110396815                                R40478000  S40401000                                                                                                                                                                                                                                                                                                                                                                                            110396816                                                                                                                                                                                                                                                                                                                                                                                     
CO2TKCBLKENX   KCBLKENX   KES1400530450001VOOMA              KES20190225902250010000552000000000121000000C 2019022020190225254786925917    20190220145645  254786925917    905114412915                  110412913                                R40401000  S40401000                                                                                                                                                                                                                                                                                                                                                                                            44075526IKSJGD412915                                                                                                                                                                                                                                                                                                                                                                          
CO2TKCBLKENX   KCBLKENX   KES1400530450001VOOMA              KES20190225902250010000562000000001351600000D 2019022220190225254722309263    20190222103002  254722309263    905310661463                  110661462                                R40478000  S40401000                                                                                                                                                                                                                                                                                                                                                                                            110661463                                                                                                                                                                                                                                                                                                                                                                                     
CO2TKCBLKENX   KCBLKENX   KES1400530450001VOOMA              KES20190225902250010000572000000001391600000D 2019022220190225254722309263    20190222104635  254722309263    905310662842                  110662841                                R40478000  S40401000                                                                                                                                                                                                                                                                                                                                                                                            110662842                                                                                                                                                                                                                                                                                                                                                                                     
CO2TKCBLKENX   KCBLKENX   KES1400530450001VOOMA              KES20190225902250010000582000000003016600000D 2019022220190225254722309263    20190222144812  254722309263    905314686255                  110686254                                R40478000  S40401000                                                                                                                                                                                                                                                                                                                                                                                            110686255                                                                                                                                                                                                                                                                                                                                                                                     
CO2TKCBLKENX   KCBLKENX   KES1400530450001VOOMA              KES20190225902250010000592000000000316600000D 2019022520190225254722309263    20190225103228  254722309263    905610138687                  111138686                                R40478000  S40401000                                                                                                                                                                                                                                                                                                                                                                                            110138687                                                                                                                                                                                                                                                                                                                                                                                     
CO2TKCBLKENX   KCBLKENX   KES1400530450001VOOMA              KES20190225902250010000602000000001111600000C 2019022220190225                20190222102737                  905310661255                  110661254                                R40478000  S40401000                                                                                                                                                                                                                                                                                                                                                                                            110661259                                                                                                                                                                                                                                                                                                                                                                                     
CO2TKCBLKENX   KCBLKENX   KES1400530450001VOOMA              KES20190225902250010000612000000002050000000C 2019021920190225206206          20190219113833  206206          905011250294                  110250292                                R40401000  S40441000                                                                                                                                                                                                                                                                                                                                                                                            41327226303013250294                                                                                                                                                                                                                                                                                                                                                                          
CO2TKCBLKENX   KCBLKENX   KES1400530450001VOOMA              KES20190225902250010000622000000000511600000D 2019022120190225888111111111    20190221131435  888111111111    905213537403                  110537400                                R40403000  S40401000                                                                                                                                                                                                                                                                                                                                                                                            110537403                                                                                                                                                                                                                                                                                                                                                                                     
CO2TKCBLKENX   KCBLKENX   KES1400530450001VOOMA              KES20190225902250010000632000000000422600000D 201902202019022510017           20190220130201  10017           905113401346                  110401345                                R40478000  S40401000                                                                                                                                                                                                                                                                                                                                                                                            110401346                                                                                                                                                                                                                                                                                                                                                                                     
CO2TKCBLKENX   KCBLKENX   KES1400530450001VOOMA              KES20190225902250010000642000000000200000000C 20190221201902251109855338      20190221164327  1109855338      905216558713                  110558711                                R40401000  S40412000                                                                                                                                                                                                                                                                                                                                                                                            44597126IKSJHJ558713                                                                                                                                                                                                                                                                                                                                                                          
CO2TKCBLKENX   KCBLKENX   KES1400530450001VOOMA              KES20190225902250010000652000000000320000000C 20190221201902251109855338      20190221165100  1109855338      905216559465                  110559463                                R40401000  S40412000                                                                                                                                                                                                                                                                                                                                                                                            44597126IKSJHK559465                                                                                                                                                                                                                                                                                                                                                                          
CO2TKCBLKENX   KCBLKENX   KES1400530450001VOOMA              KES20190225902250010000662000000000511600000D 2019022220190225888111111111    20190222115641  888111111111    905311669606                  110669605                                R40453000  S40401000                                                                                                                                                                                                                                                                                                                                                                                            110669606                                                                                                                                                                                                                                                                                                                                                                                     
CO2TKCBLKENX   KCBLKENX   KES1400530450001VOOMA              KES20190225902250010000672000000001012600000D 2019022220190225254722309263    20190222124518  254722309263    905312674336                  110674335                                R40478000  S40401000                                                                                                                                                                                                                                                                                                                                                                                            110674336                                                                                                                                                                                                                                                                                                                                                                                     
CO2TKCBLKENX   KCBLKENX   KES1400530450001VOOMA              KES20190225902250010000682000000001391600000C 2019022220190225                20190222144211                  905314685663                  110685662                                R40478000  S40401000                                                                                                                                                                                                                                                                                                                                                                                            110685672                                                                                                                                                                                                                                                                                                                                                                                     
CO2TKCBLKENX   KCBLKENX   KES1400530450001VOOMA              KES20190225902250010000692000000000711600000D 201902212019022510018           20190221105801  10018           905210523193                  110523192                                R40478000  S40401000                                                                                                                                                                                                                                                                                                                                                                                            110523193                                                                                                                                                                                                                                                                                                                                                                                     
CO2TKCBLKENX   KCBLKENX   KES1400530450001VOOMA              KES20190225902250010000702000000002050000000C 2019022020190225206206          20190220125108  206206          905112400229                  110400225                                R40401000  S40466000                                                                                                                                                                                                                                                                                                                                                                                            40545326IKSJFZ400229                                                                                                                                                                                                                                                                                                                                                                          
CO2TKCBLKENX   KCBLKENX   KES1400530450001VOOMA              KES20190225902250010000712000000000111000000C 2019022020190225254786925917    20190220151440  254786925917    905115414688                  110414684                                R40401000  S40401000                                                                                                                                                                                                                                                                                                                                                                                            44075526IKSJGG414688                                                                                                                                                                                                                                                                                                                                                                          
CO2TKCBLKENX   KCBLKENX   KES1400530450001VOOMA              KES20190225902250010000722000000003050000000C 2019022020190225206206          20190220154555  206206          905115417742                  110417738                                R40401000  S40466000                                                                                                                                                                                                                                                                                                                                                                                            40545326IKSJGH417742                                                                                                                                                                                                                                                                                                                                                                          
CO2TKCBLKENX   KCBLKENX   KES1400530450001VOOMA              KES20190225902250010000732000000002050000000C 2019022120190225206206          20190221110637  206206          905211524102                  110524100                                R40401000  S40441000                                                                                                                                                                                                                                                                                                                                                                                            41327226IKSJHC524102                                                                                                                                                                                                                                                                                                                                                                          
CO2TKCBLKENX   KCBLKENX   KES1400530450001VOOMA              KES20190225902250010000742000000001391600000D 2019022220190225254722309263    20190222144121  254722309263    905314685586                  110685585                                R40478000  S40401000                                                                                                                                                                                                                                                                                                                                                                                            110685586                                                                                                                                                                                                                                                                                                                                                                                     
CO2TKCBLKENX   KCBLKENX   KES1400530450001VOOMA              KES20190225902250010000752000000003016600000D 2019022220190225254722309263    20190222144506  254722309263    905314685962                  110685961                                R40478000  S40401000                                                                                                                                                                                                                                                                                                                                                                                            110685962                                                                                                                                                                                                                                                                                                                                                                                     
CO2TKCBLKENX   KCBLKENX   KES1400530450001VOOMA              KES20190225902250010000762000000000600000000C 2019022120190225206206          20190221095720  206206          905209516890                  110516888                                R40401000  S40441000                                                                                                                                                                                                                                                                                                                                                                                            41327226IKSJHA516890                                                                                                                                                                                                                                                                                                                                                                          
CO2TKCBLKENX   KCBLKENX   KES1400530450001VOOMA              KES20190225902250010000772000001009481200000C 2019022520190225SETTLEMENT                                                                                                                                                                                                                                                                                                                                                                                                                                                                                                                                                                                                                                                                                                                                                                                                                                                                                                                           
CO3TKCBLKENX   KCBLKENX   KES1400530450001VOOMA              KES2019022590225001000078320190225000000000000000000C                                                                                                                                                                                                                                                                                                                                                                                                                                                                                                                                                                                                                                                                                                                                                                                                                                                                                                                                              
