CO0T                                                            00000000000000000000000CORONA    CS        070802019022519000000                                                                                                                                                                                                                                                                                                                                                                                                                                                                                                                                                                                                                                                                                                                                                                                                                                                                                                                                
CO1TKCBLKENX   KCBLKENX   KES1400530450001TWO                KES2019022590225000010001120190225000000000000000000C                                                                                                                                                                                                                                                                                                                                                                                                                                                                                                                                                                                                                                                                                                                                                                                                                                                                                                                                              
CO2TKCBLKENX   KCBLKENX   KES1400530450001TWO                KES20190225902250000100022000000000001000000C 20190215201902251109753799      20190215155720  1109753799      904615757842    474026        109757840                                R40401000  S40403000                                                                                                                                                                                                                                                                                                                                                                                            454740263757842                                                                                                                                                                                                                                                                                                                                                                               
CO2TKCBLKENX   KCBLKENX   KES1400530450001TWO                KES20190225902250000100032000000000006000000C 20190215201902251126929891      20190215161234  1126929891      904616759351    597126        109759348                                R40401000  S40412000                                                                                                                                                                                                                                                                                                                                                                                            44597126408007759351                                                                                                                                                                                                                                                                                                                                                                          
CO2TKCBLKENX   KCBLKENX   KES1400530450001TWO                KES20190225902250000100042000000000001100000C 2019021520190225206206          20190215162426  206206          904616760533    736326        109760531                                R40401000  S40457000                                                                                                                                                                                                                                                                                                                                                                                            41736326892009760533                                                                                                                                                                                                                                                                                                                                                                          
CO2TKCBLKENX   KCBLKENX   KES1400530450001TWO                KES20190225902250000100052000000000011500000C 2019021920190225206206          20190219110105  206206          905011246509    327226        110246507                                R40401000  S40441000                                                                                                                                                                                                                                                                                                                                                                                            41327226373011246509                                                                                                                                                                                                                                                                                                                                                                          
CO2TKCBLKENX   KCBLKENX   KES1400530450001TWO                KES20190225902250000100062000000000010500000C 2019022020190225206206          20190220114448  206206          905111393456    346126        110393450                                R40401000  S40419000                                                                                                                                                                                                                                                                                                                                                                                            46346126IKSJFU393456                                                                                                                                                                                                                                                                                                                                                                          
CO2TKCBLKENX   KCBLKENX   KES1400530450001TWO                KES20190225902250000100072000000000001110000C 2019022020190225254786925917    20190220142309  254786925917    905114409615    075526        110409613                                R40401000  S40401000                                                                                                                                                                                                                                                                                                                                                                                            44075526IKSJGC409615                                                                                                                                                                                                                                                                                                                                                                          
CO2TKCBLKENX   KCBLKENX   KES1400530450001TWO                KES20190225902250000100082000000000006000000C 2019022120190225206206          20190221094038  206206          905209515151    327226        110515149                                R40401000  S40441000                                                                                                                                                                                                                                                                                                                                                                                            41327226IKSJGZ515151                                                                                                                                                                                                                                                                                                                                                                          
CO2TKCBLKENX   KCBLKENX   KES1400530450001TWO                KES20190225902250000100092000000000011500000C 2019022120190225206206          20190221123859  206206          905212533736    327226        110533731                                R40401000  S40441000                                                                                                                                                                                                                                                                                                                                                                                            41327226IKSJHD533736                                                                                                                                                                                                                                                                                                                                                                          
CO2TKCBLKENX   KCBLKENX   KES1400530450001TWO                KES20190225902250000100102000000000001000000C 20190221201902251109855338      20190221164057  1109855338      905216558462    597126        110558460                                R40401000  S40412000                                                                                                                                                                                                                                                                                                                                                                                            44597126IKSJHF558462                                                                                                                                                                                                                                                                                                                                                                          
CO2TKCBLKENX   KCBLKENX   KES1400530450001TWO                KES20190225902250000100112000000000422449500C 2019022120190225                20190221175135                  905217565439    075510        110565438                                R  S40401000                                                                                                                                                                                                                                                                                                                                                                                                    44075510565441                                                                                                                                                                                                                                                                                                                                                                                
CO2TKCBLKENX   KCBLKENX   KES1400530450001TWO                KES20190225902250000100122000000000421849500C 2019022120190225                20190221191436                  905219574077    075510        110574076                                R  S40401000                                                                                                                                                                                                                                                                                                                                                                                                    44075510574079                                                                                                                                                                                                                                                                                                                                                                                
CO2TKCBLKENX   KCBLKENX   KES1400530450001TWO                KES20190225902250000100132000000000030500000C 2019022220190225206206          20190222175843  206206          905317705798    327226        110705796                                R40401000  S40441000                                                                                                                                                                                                                                                                                                                                                                                            41327226IKSJIF705798                                                                                                                                                                                                                                                                                                                                                                          
CO2TKCBLKENX   KCBLKENX   KES1400530450001TWO                KES20190225902250000100142000000000001110000D 20190220201902251101880538      20190220151440  1101880538      905115414685    075510        110414684                                R40401000  S40401000                                                                                                                                                                                                                                                                                                                                                                                            44075510414685                                                                                                                                                                                                                                                                                                                                                                                
CO2TKCBLKENX   KCBLKENX   KES1400530450001TWO                KES20190225902250000100152000000000005000000C 20190215201902251109753799      20190215160627  1109753799      904616758779    474026        109758777                                R40401000  S40403000                                                                                                                                                                                                                                                                                                                                                                                            45474026841005758779                                                                                                                                                                                                                                                                                                                                                                          
CO2TKCBLKENX   KCBLKENX   KES1400530450001TWO                KES20190225902250000100162000000000011500000C 2019021920190225206206          20190219112137  206206          905011248569    327226        110248567                                R40401000  S40441000                                                                                                                                                                                                                                                                                                                                                                                            41327226573012248569                                                                                                                                                                                                                                                                                                                                                                          
CO2TKCBLKENX   KCBLKENX   KES1400530450001TWO                KES20190225902250000100172000000000040500000C 2019022020190225206206          20190220162716  206206          905116421787    346126        110421776                                R40401000  S40419000                                                                                                                                                                                                                                                                                                                                                                                            46346126IKSJGR421787                                                                                                                                                                                                                                                                                                                                                                          
CO2TKCBLKENX   KCBLKENX   KES1400530450001TWO                KES20190225902250000100182000000000022336000D 20190221201902251102917028      20190221184226  1102917028      905218570687    075510        110570686                                R40478000  S40401000                                                                                                                                                                                                                                                                                                                                                                                            44075510570687                                                                                                                                                                                                                                                                                                                                                                                
CO2TKCBLKENX   KCBLKENX   KES1400530450001TWO                KES20190225902250000100192000000000013500000C 2019022120190225206206          20190221172704  206206          905217563058    346126        110563050                                R40401000  S40419000                                                                                                                                                                                                                                                                                                                                                                                            46346126IKSJHL563058                                                                                                                                                                                                                                                                                                                                                                          
CO2TKCBLKENX   KCBLKENX   KES1400530450001TWO                KES20190225902250000100202000000000012616000D 20190221201902251139837192      20190221182540  1139837192      905218568901    075510        110568900                                R40468000  S40401000                                                                                                                                                                                                                                                                                                                                                                                            44075510568901                                                                                                                                                                                                                                                                                                                                                                                
CO2TKCBLKENX   KCBLKENX   KES1400530450001TWO                KES20190225902250000100212000000000013916000C 2019022220190225                20190222123815                  905312673640    075510        110673639                                R40468000  S40401000                                                                                                                                                                                                                                                                                                                                                                                            44075510673642                                                                                                                                                                                                                                                                                                                                                                                
CO2TKCBLKENX   KCBLKENX   KES1400530450001TWO                KES20190225902250000100222000000000050126000D 20190222201902251102917028      20190222124704  1102917028      905312674504    075510        110674503                                R4047800  S40401000                                                                                                                                                                                                                                                                                                                                                                                             44075510674504                                                                                                                                                                                                                                                                                                                                                                                
CO2TKCBLKENX   KCBLKENX   KES1400530450001TWO                KES20190225902250000100232000000000001100000C 2019021520190225206206          20190215160759  206206          904616758918    736326        109758916                                R40401000  S40457000                                                                                                                                                                                                                                                                                                                                                                                            41736326389006758918                                                                                                                                                                                                                                                                                                                                                                          
CO2TKCBLKENX   KCBLKENX   KES1400530450001TWO                KES20190225902250000100242000000000001200000C 2019022020190225254786925917    20190220150404  254786925917    905115413626    075526        110413624                                R40401000  S40401000                                                                                                                                                                                                                                                                                                                                                                                            44075526IKSJGE413626                                                                                                                                                                                                                                                                                                                                                                          
CO2TKCBLKENX   KCBLKENX   KES1400530450001TWO                KES20190225902250000100252000000000006000000C 2019022120190225206206          20190221095923  206206          905209517118    327226        110517116                                R40401000  S40441000                                                                                                                                                                                                                                                                                                                                                                                            41327226IKSJHB517118                                                                                                                                                                                                                                                                                                                                                                          
CO2TKCBLKENX   KCBLKENX   KES1400530450001TWO                KES20190225902250000100262000000000001000000C 2019022120190225                20190221115647                  905211529311    075510        110529310                                R  S40401000                                                                                                                                                                                                                                                                                                                                                                                                    44075510529313                                                                                                                                                                                                                                                                                                                                                                                
CO2TKCBLKENX   KCBLKENX   KES1400530450001TWO                KES20190225902250000100272000000000000540000C 2019022120190225                20190221180314                  905218566603    075510        110566602                                R40468000  S40401000                                                                                                                                                                                                                                                                                                                                                                                            44075510566605                                                                                                                                                                                                                                                                                                                                                                                
CO2TKCBLKENX   KCBLKENX   KES1400530450001TWO                KES20190225902250000100282000000000050500000C 2019022220190225206206          20190222135538  206206          905313681130    346126        110681121                                R40401000  S40419000                                                                                                                                                                                                                                                                                                                                                                                            46346126IKSJHR681130                                                                                                                                                                                                                                                                                                                                                                          
CO2TKCBLKENX   KCBLKENX   KES1400530450001TWO                KES20190225902250000100292000000000010020000C 2019021520190225206206          20190215155525  206206          904615757634    545326        109757628                                R40401000  S40466000                                                                                                                                                                                                                                                                                                                                                                                            40545326175002757634                                                                                                                                                                                                                                                                                                                                                                          
CO2TKCBLKENX   KCBLKENX   KES1400530450001TWO                KES20190225902250000100302000000000040500000C 2019021920190225206206          20190219114236  206206          905011250714    346126        110250704                                R40401000  S40419000                                                                                                                                                                                                                                                                                                                                                                                            46346126883014250714                                                                                                                                                                                                                                                                                                                                                                          
CO2TKCBLKENX   KCBLKENX   KES1400530450001TWO                KES20190225902250000100312000000000010500000C 2019022020190225206206          20190220150508  206206          905115413736    346126        110413728                                R40401000  S40419000                                                                                                                                                                                                                                                                                                                                                                                            46346126IKSJGF413736                                                                                                                                                                                                                                                                                                                                                                          
CO2TKCBLKENX   KCBLKENX   KES1400530450001TWO                KES20190225902250000100322000000000000540000D 20190221201902251108696325      20190221180314  1108696325      905218566603    075510        110566602                                R40468000  S40401000                                                                                                                                                                                                                                                                                                                                                                                            44075510566603                                                                                                                                                                                                                                                                                                                                                                                
CO2TKCBLKENX   KCBLKENX   KES1400530450001TWO                KES20190225902250000100332000000000002380000C 20190215201902251126929891      20190215154841  1126929891      904615756962    597126        109756960                                R40401000  S40412000                                                                                                                                                                                                                                                                                                                                                                                            44597126252001756962                                                                                                                                                                                                                                                                                                                                                                          
CO2TKCBLKENX   KCBLKENX   KES1400530450001TWO                KES20190225902250000100342000000000060500000C 2019021820190225206206          20190218152401  206206          904915135430    327226        110135428                                R40401000  S40441000                                                                                                                                                                                                                                                                                                                                                                                            41327226347010135430                                                                                                                                                                                                                                                                                                                                                                          
CO2TKCBLKENX   KCBLKENX   KES1400530450001TWO                KES20190225902250000100352000000000001200000D 20190220201902251101880538      20190220150404  1101880538      905115413625    075510        110413624                                R40401000  S40401000                                                                                                                                                                                                                                                                                                                                                                                            44075510413625                                                                                                                                                                                                                                                                                                                                                                                
CO2TKCBLKENX   KCBLKENX   KES1400530450001TWO                KES20190225902250000100362000000000030500000C 2019022020190225206206          20190220161047  206206          905116420177    346126        110420173                                R40401000  S40419000                                                                                                                                                                                                                                                                                                                                                                                            46346126IKSJGK420177                                                                                                                                                                                                                                                                                                                                                                          
CO2TKCBLKENX   KCBLKENX   KES1400530450001TWO                KES20190225902250000100372000000000040500000C 2019022020190225206206          20190220164020  206206          905116423072    346126        110423066                                R40401000  S40419000                                                                                                                                                                                                                                                                                                                                                                                            46346126IKSJGS423072                                                                                                                                                                                                                                                                                                                                                                          
CO2TKCBLKENX   KCBLKENX   KES1400530450001TWO                KES20190225902250000100382000000000090500000C 2019022120190225206206          20190221131010  206206          905213536953    415826        110536949                                R40401000  S40478000                                                                                                                                                                                                                                                                                                                                                                                            50415826IKSJHE536953                                                                                                                                                                                                                                                                                                                                                                          
CO2TKCBLKENX   KCBLKENX   KES1400530450001TWO                KES20190225902250000100392000000000310849500C 2019022120190225                20190221191441                  905219574086    075510        110574085                                R40468000  S40401000                                                                                                                                                                                                                                                                                                                                                                                            44075510574088                                                                                                                                                                                                                                                                                                                                                                                
CO2TKCBLKENX   KCBLKENX   KES1400530450001TWO                KES20190225902250000100402000000000310849500D 2019022220190225KES140310002000120190222113312  KES1403100020001905311667319    075510        110667318                                R40468000  S40401000                                                                                                                                                                                                                                                                                                                                                                                            44075510667319                                                                                                                                                                                                                                                                                                                                                                                
CO2TKCBLKENX   KCBLKENX   KES1400530450001TWO                KES20190225902250000100412000000000005116000D 20190222201902251102917028      20190222122700  1102917028      905312672521    075510        110672520                                R40478000  S40401000                                                                                                                                                                                                                                                                                                                                                                                            44075510672521                                                                                                                                                                                                                                                                                                                                                                                
CO2TKCBLKENX   KCBLKENX   KES1400530450001TWO                KES20190225902250000100422000000000013916000D 20190222201902251139837192      20190222123815  1139837192      905312673640    075510        110673639                                R40468000  S40401000                                                                                                                                                                                                                                                                                                                                                                                            44075510673640                                                                                                                                                                                                                                                                                                                                                                                
CO2TKCBLKENX   KCBLKENX   KES1400530450001TWO                KES20190225902250000100432000000000013916000D 20190222201902251139837192      20190222165108  1139837192      905316698858    075510        110698857                                R40468000  S40401000                                                                                                                                                                                                                                                                                                                                                                                            44075510698858                                                                                                                                                                                                                                                                                                                                                                                
CO2TKCBLKENX   KCBLKENX   KES1400530450001TWO                KES20190225902250000100442000000000422449500D 2019022120190225KES140310002000120190221175135  KES1403100020001905217565439    075510        110565438                                R  S40401000                                                                                                                                                                                                                                                                                                                                                                                                    44075510565439                                                                                                                                                                                                                                                                                                                                                                                
CO2TKCBLKENX   KCBLKENX   KES1400530450001TWO                KES20190225902250000100452000000000001200000C 20190215201902251109753799      20190215160441  1109753799      904616758597    474026        109758595                                R40401000  S40403000                                                                                                                                                                                                                                                                                                                                                                                            45474026127004758597                                                                                                                                                                                                                                                                                                                                                                          
CO2TKCBLKENX   KCBLKENX   KES1400530450001TWO                KES20190225902250000100462000000000001100000C 2019021520190225206206          20190215161321  206206          904616759444    736326        109759442                                R40401000  S40457000                                                                                                                                                                                                                                                                                                                                                                                            41736326916008759444                                                                                                                                                                                                                                                                                                                                                                          
CO2TKCBLKENX   KCBLKENX   KES1400530450001TWO                KES20190225902250000100472000000000001210000D 20190220201902251101880538      20190220145645  1101880538      905114412914    075510        110412913                                R40401000  S40401000                                                                                                                                                                                                                                                                                                                                                                                            44075510412914                                                                                                                                                                                                                                                                                                                                                                                
CO2TKCBLKENX   KCBLKENX   KES1400530450001TWO                KES20190225902250000100482000000000001210000C 2019022020190225254786925917    20190220145645  254786925917    905114412915    075526        110412913                                R40401000  S40401000                                                                                                                                                                                                                                                                                                                                                                                            44075526IKSJGD412915                                                                                                                                                                                                                                                                                                                                                                          
CO2TKCBLKENX   KCBLKENX   KES1400530450001TWO                KES20190225902250000100492000000000001000000D 20190221201902251139837192      20190221115646  1139837192      905211529311    075510        110529310                                R  S40401000                                                                                                                                                                                                                                                                                                                                                                                                    44075510529311                                                                                                                                                                                                                                                                                                                                                                                
CO2TKCBLKENX   KCBLKENX   KES1400530450001TWO                KES20190225902250000100502000000000421849500D 2019022120190225KES140310002000120190221191436  KES1403100020001905219574077    075510        110574076                                R  S40401000                                                                                                                                                                                                                                                                                                                                                                                                    44075510574077                                                                                                                                                                                                                                                                                                                                                                                
CO2TKCBLKENX   KCBLKENX   KES1400530450001TWO                KES20190225902250000100512000000000310849500C 2019022220190225                20190222113313                  905311667319    075510        110667318                                R40468000  S40401000                                                                                                                                                                                                                                                                                                                                                                                            44075510667323                                                                                                                                                                                                                                                                                                                                                                                
CO2TKCBLKENX   KCBLKENX   KES1400530450001TWO                KES20190225902250000100522000000000013916000C 2019022220190225                20190222165108                  905316698858    075510        110698857                                R40468000  S40401000                                                                                                                                                                                                                                                                                                                                                                                            44075510698860                                                                                                                                                                                                                                                                                                                                                                                
CO2TKCBLKENX   KCBLKENX   KES1400530450001TWO                KES20190225902250000100532000000000020500000C 2019021920190225206206          20190219113833  206206          905011250294    327226        110250292                                R40401000  S40441000                                                                                                                                                                                                                                                                                                                                                                                            41327226303013250294                                                                                                                                                                                                                                                                                                                                                                          
CO2TKCBLKENX   KCBLKENX   KES1400530450001TWO                KES20190225902250000100542000000000001110000D 20190220201902251101880538      20190220142309  1101880538      905114409614    075510        110409613                                R40401000  S40401000                                                                                                                                                                                                                                                                                                                                                                                            44075510409614                                                                                                                                                                                                                                                                                                                                                                                
CO2TKCBLKENX   KCBLKENX   KES1400530450001TWO                KES20190225902250000100552000000000002000000C 20190221201902251109855338      20190221164327  1109855338      905216558713    597126        110558711                                R40401000  S40412000                                                                                                                                                                                                                                                                                                                                                                                            44597126IKSJHJ558713                                                                                                                                                                                                                                                                                                                                                                          
CO2TKCBLKENX   KCBLKENX   KES1400530450001TWO                KES20190225902250000100562000000000003200000C 20190221201902251109855338      20190221165100  1109855338      905216559465    597126        110559463                                R40401000  S40412000                                                                                                                                                                                                                                                                                                                                                                                            44597126IKSJHK559465                                                                                                                                                                                                                                                                                                                                                                          
CO2TKCBLKENX   KCBLKENX   KES1400530450001TWO                KES20190225902250000100572000000000012616000C 2019022120190225                20190221182541                  905218568901    075510        110568900                                R40468000  S40401000                                                                                                                                                                                                                                                                                                                                                                                            44075510568903                                                                                                                                                                                                                                                                                                                                                                                
CO2TKCBLKENX   KCBLKENX   KES1400530450001TWO                KES20190225902250000100582000000000020500000C 2019022020190225206206          20190220125108  206206          905112400229    545326        110400225                                R40401000  S40466000                                                                                                                                                                                                                                                                                                                                                                                            40545326IKSJFZ400229                                                                                                                                                                                                                                                                                                                                                                          
CO2TKCBLKENX   KCBLKENX   KES1400530450001TWO                KES20190225902250000100592000000000001110000C 2019022020190225254786925917    20190220151440  254786925917    905115414688    075526        110414684                                R40401000  S40401000                                                                                                                                                                                                                                                                                                                                                                                            44075526IKSJGG414688                                                                                                                                                                                                                                                                                                                                                                          
CO2TKCBLKENX   KCBLKENX   KES1400530450001TWO                KES20190225902250000100602000000000030500000C 2019022020190225206206          20190220154555  206206          905115417742    545326        110417738                                R40401000  S40466000                                                                                                                                                                                                                                                                                                                                                                                            40545326IKSJGH417742                                                                                                                                                                                                                                                                                                                                                                          
CO2TKCBLKENX   KCBLKENX   KES1400530450001TWO                KES20190225902250000100612000000000020500000C 2019022120190225206206          20190221110637  206206          905211524102    327226        110524100                                R40401000  S40441000                                                                                                                                                                                                                                                                                                                                                                                            41327226IKSJHC524102                                                                                                                                                                                                                                                                                                                                                                          
CO2TKCBLKENX   KCBLKENX   KES1400530450001TWO                KES20190225902250000100622000000000310849500D 2019022120190225KES140310002000120190221191441  KES1403100020001905219574086    075510        110574085                                R40468000  S40401000                                                                                                                                                                                                                                                                                                                                                                                            44075510574086                                                                                                                                                                                                                                                                                                                                                                                
CO2TKCBLKENX   KCBLKENX   KES1400530450001TWO                KES20190225902250000100632000000000006000000C 2019022120190225206206          20190221095720  206206          905209516890    327226        110516888                                R40401000  S40441000                                                                                                                                                                                                                                                                                                                                                                                            41327226IKSJHA516890                                                                                                                                                                                                                                                                                                                                                                          
CO2TKCBLKENX   KCBLKENX   KES1400530450001TWO                KES20190225902250000100642000000000520522000D 2019022520190225SETTLEMENT                                                                                                                                                                                                                                                                                                                                                                                                                                                                                                                                                                                                                                                                                                                                                                                                                                                                                                                           
CO3TKCBLKENX   KCBLKENX   KES1400530450001TWO                KES2019022590225000010065320190225000000000000000000C                                                                                                                                                                                                                                                                                                                                                                                                                                                                                                                                                                                                                                                                                                                                                                                                                                                                                                                                              
