CO0O                                                            00000000000000000000000CORONA    CS        070802019022519000000                                                                                                                                                                                                                                                                                                                                                                                                                                                                                                                                                                                                                                                                                                                                                                                                                                                                                                                                
CO1TKCBLKENX   KCBLKENX   KES1400530450001VOOMA              KES2019022590225001000001120190225000000000000000000C                                                                                                                                                                                                                                                                                                                                                                                                                                                                                                                                                                                                                                                                                                                                                                                                                                                                                                                                              
CO2TKCBLKENX   KCBLKENX   KES1400530450001VOOMA              KES20190225902250010000022000000000010020000C 20190225201902251000000000000   20190215155525  1000000000000   905000000000                  109757628                                R40401000  S40466000                                                                                                                                                                                                                                                                                                                                                                                            757634ECKEVIN WAIRIA WANJIRU                                                                                                                                                                                                                                                                                                                                                                  
CO2TKCBLKENX   KCBLKENX   KES1400530450001VOOMA              KES20190225902250010000032000000000001100000C 2019022520190225101000000000    20190215162426  101000000000    905000000000                  109760531                                R40401000  S40457000                                                                                                                                                                                                                                                                                                                                                                                            760533ECTEST ACCOUNT  NAME                                                                                                                                                                                                                                                                                                                                                                    
CO2TKCBLKENX   KCBLKENX   KES1400530450001VOOMA              KES20190225902250010000042000000000060500000C 20190225201902251006254598      20190218152401  1006254598      905000000000                  110135428                                R40401000  S40441000                                                                                                                                                                                                                                                                                                                                                                                            135430ECINDUSMLIMITED                                                                                                                                                                                                                                                                                                                                                                         
CO2TKCBLKENX   KCBLKENX   KES1400530450001VOOMA              KES20190225902250010000052000000000011500000C 20190225201902251006254598      20190219110105  1006254598      905000000000                  110246507                                R40401000  S40441000                                                                                                                                                                                                                                                                                                                                                                                            246509ECINDUSMLIMITED                                                                                                                                                                                                                                                                                                                                                                         
CO2TKCBLKENX   KCBLKENX   KES1400530450001VOOMA              KES20190225902250010000062000000000011500000C 20190225201902251006254598      20190219112137  1006254598      905000000000                  110248567                                R40401000  S40441000                                                                                                                                                                                                                                                                                                                                                                                            248569ECINDUSMLIMITED                                                                                                                                                                                                                                                                                                                                                                         
CO2TKCBLKENX   KCBLKENX   KES1400530450001VOOMA              KES20190225902250010000072000000000020500000C 20190225201902251006254598      20190219113833  1006254598      905000000000                  110250292                                R40401000  S40441000                                                                                                                                                                                                                                                                                                                                                                                            250294ECINDUSMLIMITED                                                                                                                                                                                                                                                                                                                                                                         
CO2TKCBLKENX   KCBLKENX   KES1400530450001VOOMA              KES20190225902250010000082000000000010500000C 2019022520190225                20190220114448                  905000000000                  110393450                                R40401000  S40419000                                                                                                                                                                                                                                                                                                                                                                                            393456EC                                                                                                                                                                                                                                                                                                                                                                                      
CO2TKCBLKENX   KCBLKENX   KES1400530450001VOOMA              KES20190225902250010000092000000000005200000D 201902252019022585197016        20190220121624  85197016        905000000000                  110396664                                R40478000  S40401000                                                                                                                                                                                                                                                                                                                                                                                            396665VOGEOFFREY TONNY ODEDE                                                                                                                                                                                                                                                                                                                                                                  
CO2TKCBLKENX   KCBLKENX   KES1400530450001VOOMA              KES20190225902250010000102000000000005116000D 201902252019022585197016        20190220121753  85197016        905000000000                  110396815                                R40478000  S40401000                                                                                                                                                                                                                                                                                                                                                                                            396816VOGEOFFREY TONNY ODEDE                                                                                                                                                                                                                                                                                                                                                                  
CO2TKCBLKENX   KCBLKENX   KES1400530450001VOOMA              KES20190225902250010000112000000000020116000D 201902252019022585197016        20190220124517  85197016        905000000000                  110399627                                R40478000  S40401000                                                                                                                                                                                                                                                                                                                                                                                            399628VOGEOFFREY TONNY ODEDE                                                                                                                                                                                                                                                                                                                                                                  
CO2TKCBLKENX   KCBLKENX   KES1400530450001VOOMA              KES20190225902250010000122000000000020500000C 2019022520190225                20190220125108                  905000000000                  110400225                                R40401000  S40466000                                                                                                                                                                                                                                                                                                                                                                                            400229EC                                                                                                                                                                                                                                                                                                                                                                                      
CO2TKCBLKENX   KCBLKENX   KES1400530450001VOOMA              KES20190225902250010000132000000000004226000D 201902252019022510017           20190220130201  10017           905000000000                  110401345                                R40478000  S40401000                                                                                                                                                                                                                                                                                                                                                                                            401346VODiasporaN/ACustomer                                                                                                                                                                                                                                                                                                                                                                   
CO2TKCBLKENX   KCBLKENX   KES1400530450001VOOMA              KES20190225902250010000142000000000004226000D 201902252019022510017           20190220132108  10017           905000000000                  110403302                                R40478000  S40401000                                                                                                                                                                                                                                                                                                                                                                                            403303VODiasporaN/ACustomer                                                                                                                                                                                                                                                                                                                                                                   
CO2TKCBLKENX   KCBLKENX   KES1400530450001VOOMA              KES20190225902250010000152000000000004226000D 201902252019022510017           20190220140001  10017           905000000000                  110407282                                R40478000  S40401000                                                                                                                                                                                                                                                                                                                                                                                            407283VODiasporaN/ACustomer                                                                                                                                                                                                                                                                                                                                                                   
CO2TKCBLKENX   KCBLKENX   KES1400530450001VOOMA              KES20190225902250010000162000000000006306000D 201902252019022510017           20190220140620  10017           905000000000                  110407926                                R40478000  S40401000                                                                                                                                                                                                                                                                                                                                                                                            407927VODiasporaN/ACustomer                                                                                                                                                                                                                                                                                                                                                                   
CO2TKCBLKENX   KCBLKENX   KES1400530450001VOOMA              KES20190225902250010000172000000000006116000D 201902252019022510017           20190220140719  10017           905000000000                  110408024                                R40478000  S40401000                                                                                                                                                                                                                                                                                                                                                                                            408025VODiasporaN/ACustomer                                                                                                                                                                                                                                                                                                                                                                   
CO2TKCBLKENX   KCBLKENX   KES1400530450001VOOMA              KES20190225902250010000182000000000006216000D 201902252019022510017           20190220141228  10017           905000000000                  110408539                                R40478000  S40401000                                                                                                                                                                                                                                                                                                                                                                                            408540VODiasporaN/ACustomer                                                                                                                                                                                                                                                                                                                                                                   
CO2TKCBLKENX   KCBLKENX   KES1400530450001VOOMA              KES20190225902250010000192000000000010500000C 2019022520190225                20190220150508                  905000000000                  110413728                                R40401000  S40419000                                                                                                                                                                                                                                                                                                                                                                                            413736EC                                                                                                                                                                                                                                                                                                                                                                                      
CO2TKCBLKENX   KCBLKENX   KES1400530450001VOOMA              KES20190225902250010000202000000000030500000C 2019022520190225                20190220154555                  905000000000                  110417738                                R40401000  S40466000                                                                                                                                                                                                                                                                                                                                                                                            417742EC                                                                                                                                                                                                                                                                                                                                                                                      
CO2TKCBLKENX   KCBLKENX   KES1400530450001VOOMA              KES20190225902250010000212000000000030500000C 2019022520190225                20190220161047                  905000000000                  110420173                                R40401000  S40419000                                                                                                                                                                                                                                                                                                                                                                                            420177EC                                                                                                                                                                                                                                                                                                                                                                                      
CO2TKCBLKENX   KCBLKENX   KES1400530450001VOOMA              KES20190225902250010000222000000000040500000C 2019022520190225                20190220162716                  905000000000                  110421776                                R40401000  S40419000                                                                                                                                                                                                                                                                                                                                                                                            421787EC                                                                                                                                                                                                                                                                                                                                                                                      
CO2TKCBLKENX   KCBLKENX   KES1400530450001VOOMA              KES20190225902250010000232000000000040500000C 2019022520190225                20190220164020                  905000000000                  110423066                                R40401000  S40419000                                                                                                                                                                                                                                                                                                                                                                                            423072EC                                                                                                                                                                                                                                                                                                                                                                                      
CO2TKCBLKENX   KCBLKENX   KES1400530450001VOOMA              KES20190225902250010000242000000000006000000C 2019022520190225                20190221094038                  905000000000                  110515149                                R40401000  S40441000                                                                                                                                                                                                                                                                                                                                                                                            515151EC                                                                                                                                                                                                                                                                                                                                                                                      
CO2TKCBLKENX   KCBLKENX   KES1400530450001VOOMA              KES20190225902250010000252000000000006000000C 2019022520190225                20190221095720                  905000000000                  110516888                                R40401000  S40441000                                                                                                                                                                                                                                                                                                                                                                                            516890EC                                                                                                                                                                                                                                                                                                                                                                                      
CO2TKCBLKENX   KCBLKENX   KES1400530450001VOOMA              KES20190225902250010000262000000000006000000C 2019022520190225                20190221095923                  905000000000                  110517116                                R40401000  S40441000                                                                                                                                                                                                                                                                                                                                                                                            517118EC                                                                                                                                                                                                                                                                                                                                                                                      
CO2TKCBLKENX   KCBLKENX   KES1400530450001VOOMA              KES20190225902250010000272000000000007116000D 201902252019022510018           20190221105801  10018           905000000000                  110523192                                R40478000  S40401000                                                                                                                                                                                                                                                                                                                                                                                            523193VODiasporaN/ACustomer                                                                                                                                                                                                                                                                                                                                                                   
CO2TKCBLKENX   KCBLKENX   KES1400530450001VOOMA              KES20190225902250010000282000000000007126000D 201902252019022510017           20190221110010  10017           905000000000                  110523425                                R40478000  S40401000                                                                                                                                                                                                                                                                                                                                                                                            523426VODiasporaN/ACustomer                                                                                                                                                                                                                                                                                                                                                                   
CO2TKCBLKENX   KCBLKENX   KES1400530450001VOOMA              KES20190225902250010000292000000000020500000C 2019022520190225                20190221110637                  905000000000                  110524100                                R40401000  S40441000                                                                                                                                                                                                                                                                                                                                                                                            524102EC                                                                                                                                                                                                                                                                                                                                                                                      
CO2TKCBLKENX   KCBLKENX   KES1400530450001VOOMA              KES20190225902250010000302000000000011500000C 2019022520190225                20190221123859                  905000000000                  110533731                                R40401000  S40441000                                                                                                                                                                                                                                                                                                                                                                                            533736EC                                                                                                                                                                                                                                                                                                                                                                                      
CO2TKCBLKENX   KCBLKENX   KES1400530450001VOOMA              KES20190225902250010000312000000000090500000C 2019022520190225                20190221131010                  905000000000                  110536949                                R40401000  S40478000                                                                                                                                                                                                                                                                                                                                                                                            536953EC                                                                                                                                                                                                                                                                                                                                                                                      
CO2TKCBLKENX   KCBLKENX   KES1400530450001VOOMA              KES20190225902250010000322000000000005116000D 201902252019022585197016        20190221131435  85197016        905000000000                  110537400                                R40403000  S40401000                                                                                                                                                                                                                                                                                                                                                                                            537403VOGEOFFREY TONNY ODEDE                                                                                                                                                                                                                                                                                                                                                                  
CO2TKCBLKENX   KCBLKENX   KES1400530450001VOOMA              KES20190225902250010000332000000000013500000C 2019022520190225                20190221172704                  905000000000                  110563050                                R40401000  S40419000                                                                                                                                                                                                                                                                                                                                                                                            563058EC                                                                                                                                                                                                                                                                                                                                                                                      
CO2TKCBLKENX   KCBLKENX   KES1400530450001VOOMA              KES20190225902250010000342000000000011116000D 2019022520190225255000000000    20190222090106  255000000000    905000000000                  110653288                                R40478000  S40401000                                                                                                                                                                                                                                                                                                                                                                                            653289VOHENRYNAONDIEKI                                                                                                                                                                                                                                                                                                                                                                        
CO2TKCBLKENX   KCBLKENX   KES1400530450001VOOMA              KES20190225902250010000352000000000011116000D 2019022520190225255000000000    20190222102736  255000000000    905000000000                  110661254                                R40478000  S40401000                                                                                                                                                                                                                                                                                                                                                                                            661255VOHENRYNAONDIEKI                                                                                                                                                                                                                                                                                                                                                                        
CO2TKCBLKENX   KCBLKENX   KES1400530450001VOOMA              KES20190225902250010000362000000000011116000C 2019022520190225255000000000    20190222102737  255000000000    905000000000                  110661254                                R40478000  S40401000                                                                                                                                                                                                                                                                                                                                                                                            661259VOHENRYNAONDIEKI                                                                                                                                                                                                                                                                                                                                                                        
CO2TKCBLKENX   KCBLKENX   KES1400530450001VOOMA              KES20190225902250010000372000000000013516000D 2019022520190225255000000000    20190222103002  255000000000    905000000000                  110661462                                R40478000  S40401000                                                                                                                                                                                                                                                                                                                                                                                            661463VOHENRYNAONDIEKI                                                                                                                                                                                                                                                                                                                                                                        
CO2TKCBLKENX   KCBLKENX   KES1400530450001VOOMA              KES20190225902250010000382000000000013916000D 2019022520190225255000000000    20190222104635  255000000000    905000000000                  110662841                                R40478000  S40401000                                                                                                                                                                                                                                                                                                                                                                                            662842VOHENRYNAONDIEKI                                                                                                                                                                                                                                                                                                                                                                        
CO2TKCBLKENX   KCBLKENX   KES1400530450001VOOMA              KES20190225902250010000392000000000005116000D 201902252019022585197016        20190222115641  85197016        905000000000                  110669605                                R40453000  S40401000                                                                                                                                                                                                                                                                                                                                                                                            669606VOGEOFFREY TONNY ODEDE                                                                                                                                                                                                                                                                                                                                                                  
CO2TKCBLKENX   KCBLKENX   KES1400530450001VOOMA              KES20190225902250010000402000000000030126000D 2019022520190225255000000000    20190222123617  255000000000    905000000000                  110673441                                R40478000  S40401000                                                                                                                                                                                                                                                                                                                                                                                            673442VOHENRYNAONDIEKI                                                                                                                                                                                                                                                                                                                                                                        
CO2TKCBLKENX   KCBLKENX   KES1400530450001VOOMA              KES20190225902250010000412000000000030136000D 2019022520190225255000000000    20190222124313  255000000000    905000000000                  110674120                                R40478000  S40401000                                                                                                                                                                                                                                                                                                                                                                                            674121VOHENRYNAONDIEKI                                                                                                                                                                                                                                                                                                                                                                        
CO2TKCBLKENX   KCBLKENX   KES1400530450001VOOMA              KES20190225902250010000422000000000010126000D 2019022520190225255000000000    20190222124518  255000000000    905000000000                  110674335                                R40478000  S40401000                                                                                                                                                                                                                                                                                                                                                                                            674336VOHENRYNAONDIEKI                                                                                                                                                                                                                                                                                                                                                                        
CO2TKCBLKENX   KCBLKENX   KES1400530450001VOOMA              KES20190225902250010000432000000009000116000D 201902252019022585197016        20190222125951  85197016        905000000000                  110675742                                R40453000  S40401000                                                                                                                                                                                                                                                                                                                                                                                            675743VOGEOFFREY TONNY ODEDE                                                                                                                                                                                                                                                                                                                                                                  
CO2TKCBLKENX   KCBLKENX   KES1400530450001VOOMA              KES20190225902250010000442000000000050500000C 2019022520190225                20190222135538                  905000000000                  110681121                                R40401000  S40419000                                                                                                                                                                                                                                                                                                                                                                                            681130EC                                                                                                                                                                                                                                                                                                                                                                                      
CO2TKCBLKENX   KCBLKENX   KES1400530450001VOOMA              KES20190225902250010000452000000000030146000C 2019022520190225255000000000    20190222142210  255000000000    905000000000                  110683694                                R40478000  S40401000                                                                                                                                                                                                                                                                                                                                                                                            683699VOHENRYNAONDIEKI                                                                                                                                                                                                                                                                                                                                                                        
CO2TKCBLKENX   KCBLKENX   KES1400530450001VOOMA              KES20190225902250010000462000000000030146000D 2019022520190225255000000000    20190222142209  255000000000    905000000000                  110683694                                R40478000  S40401000                                                                                                                                                                                                                                                                                                                                                                                            683695VOHENRYNAONDIEKI                                                                                                                                                                                                                                                                                                                                                                        
CO2TKCBLKENX   KCBLKENX   KES1400530450001VOOMA              KES20190225902250010000472000000000030156000D 2019022520190225255000000000    20190222142303  255000000000    905000000000                  110683793                                R40478000  S40401000                                                                                                                                                                                                                                                                                                                                                                                            683794VOHENRYNAONDIEKI                                                                                                                                                                                                                                                                                                                                                                        
CO2TKCBLKENX   KCBLKENX   KES1400530450001VOOMA              KES20190225902250010000482000000000007136000D 201902252019022510017           20190222142410  10017           905000000000                  110683899                                R40478000  S40401000                                                                                                                                                                                                                                                                                                                                                                                            683901VODiasporaN/ACustomer                                                                                                                                                                                                                                                                                                                                                                   
CO2TKCBLKENX   KCBLKENX   KES1400530450001VOOMA              KES20190225902250010000492000000000007146000D 201902252019022510017           20190222142536  10017           905000000000                  110684049                                R40478000  S40401000                                                                                                                                                                                                                                                                                                                                                                                            684050VODiasporaN/ACustomer                                                                                                                                                                                                                                                                                                                                                                   
CO2TKCBLKENX   KCBLKENX   KES1400530450001VOOMA              KES20190225902250010000502000000000007146000C 201902252019022510017           20190222142537  10017           905000000000                  110684049                                R40478000  S40401000                                                                                                                                                                                                                                                                                                                                                                                            684056VODiasporaN/ACustomer                                                                                                                                                                                                                                                                                                                                                                   
CO2TKCBLKENX   KCBLKENX   KES1400530450001VOOMA              KES20190225902250010000512000000000013916000D 2019022520190225255000000000    20190222144121  255000000000    905000000000                  110685585                                R40478000  S40401000                                                                                                                                                                                                                                                                                                                                                                                            685586VOHENRYNAONDIEKI                                                                                                                                                                                                                                                                                                                                                                        
CO2TKCBLKENX   KCBLKENX   KES1400530450001VOOMA              KES20190225902250010000522000000000013916000C 2019022520190225255000000000    20190222144124  255000000000    905000000000                  110685585                                R40478000  S40401000                                                                                                                                                                                                                                                                                                                                                                                            685590VOHENRYNAONDIEKI                                                                                                                                                                                                                                                                                                                                                                        
CO2TKCBLKENX   KCBLKENX   KES1400530450001VOOMA              KES20190225902250010000532000000000013916000D 2019022520190225255000000000    20190222144209  255000000000    905000000000                  110685662                                R40478000  S40401000                                                                                                                                                                                                                                                                                                                                                                                            685663VOHENRYNAONDIEKI                                                                                                                                                                                                                                                                                                                                                                        
CO2TKCBLKENX   KCBLKENX   KES1400530450001VOOMA              KES20190225902250010000542000000000013916000C 2019022520190225255000000000    20190222144211  255000000000    905000000000                  110685662                                R40478000  S40401000                                                                                                                                                                                                                                                                                                                                                                                            685672VOHENRYNAONDIEKI                                                                                                                                                                                                                                                                                                                                                                        
CO2TKCBLKENX   KCBLKENX   KES1400530450001VOOMA              KES20190225902250010000552000000000010146000D 2019022520190225255000000000    20190222144423  255000000000    905000000000                  110685889                                R40478000  S40401000                                                                                                                                                                                                                                                                                                                                                                                            685890VOHENRYNAONDIEKI                                                                                                                                                                                                                                                                                                                                                                        
CO2TKCBLKENX   KCBLKENX   KES1400530450001VOOMA              KES20190225902250010000562000000000030166000C 2019022520190225255000000000    20190222144508  255000000000    905000000000                  110685961                                R40478000  S40401000                                                                                                                                                                                                                                                                                                                                                                                            685970VOHENRYNAONDIEKI                                                                                                                                                                                                                                                                                                                                                                        
CO2TKCBLKENX   KCBLKENX   KES1400530450001VOOMA              KES20190225902250010000572000000000030166000D 2019022520190225255000000000    20190222144506  255000000000    905000000000                  110685961                                R40478000  S40401000                                                                                                                                                                                                                                                                                                                                                                                            685962VOHENRYNAONDIEKI                                                                                                                                                                                                                                                                                                                                                                        
CO2TKCBLKENX   KCBLKENX   KES1400530450001VOOMA              KES20190225902250010000582000000000030166000D 2019022520190225255000000000    20190222144812  255000000000    905000000000                  110686254                                R40478000  S40401000                                                                                                                                                                                                                                                                                                                                                                                            686255VOHENRYNAONDIEKI                                                                                                                                                                                                                                                                                                                                                                        
CO2TKCBLKENX   KCBLKENX   KES1400530450001VOOMA              KES20190225902250010000592000000000003166000D 2019022520190225255000000000    20190225103228  255000000000    906000000000                  111138686                                R40478000  S40401000                                                                                                                                                                                                                                                                                                                                                                                            138687VOHENRYNAONDIEKI                                                                                                                                                                                                                                                                                                                                                                        
CO2TKCBLKENX   KCBLKENX   KES1400530450001VOOMA              KES20190225902250010000602000000000003226000D 2019022520190225255000000000    20190225104712  255000000000    906000000000                  111140254                                R40478000  S40401000                                                                                                                                                                                                                                                                                                                                                                                            140255VOHENRYNAONDIEKI                                                                                                                                                                                                                                                                                                                                                                        
CO2TKCBLKENX   KCBLKENX   KES1400530450001VOOMA              KES20190225902250010000612000000008776150000C 2019022520190225DUMMY                                                                                                                                                                                                                                                                                                                                                                                                                                                                                                                                                                                                                                                                                                                                                                                                                                                                                                                                
CO3TKCBLKENX   KCBLKENX   KES1400530450001VOOMA              KES2019022590225001000062320190225000000000000000000C                                                                                                                                                                                                                                                                                                                                                                                                                                                                                                                                                                                                                                                                                                                                                                                                                                                                                                                                              
