CO0O                                                            00000000000000000000000CORONA    CS        070802019022519000000                                                                                                                                                                                                                                                                                                                                                                                                                                                                                                                                                                                                                                                                                                                                                                                                                                                                                                                                
CO1TKCBLKENX   KCBLKENX   KES1400530450001TWO                KES2019022590225001000001120190225000000000000000000C                                                                                                                                                                                                                                                                                                                                                                                                                                                                                                                                                                                                                                                                                                                                                                                                                                                                                                                                              
CO2TKCBLKENX   KCBLKENX   KES1400530450001TWO                KES20190225902250010000022000000000002380000C 20190225201902251080000000000   20190215154841  1080000000000   905000000000                  109756960                                R40401000  S40412000                                                                                                                                                                                                                                                                                                                                                                                            756962P2PNone                                                                                                                                                                                                                                                                                                                                                                                 
CO2TKCBLKENX   KCBLKENX   KES1400530450001TWO                KES20190225902250010000032000000000001000000C 20190225201902252010220346      20190215155720  2010220346      905000000000                  109757840                                R40401000  S40403000                                                                                                                                                                                                                                                                                                                                                                                            757842P2PMakola Testing                                                                                                                                                                                                                                                                                                                                                                       
CO2TKCBLKENX   KCBLKENX   KES1400530450001TWO                KES20190225902250010000042000000000001200000C 2019022520190225311063464       20190215160441  311063464       905000000000                  109758595                                R40401000  S40403000                                                                                                                                                                                                                                                                                                                                                                                            758597P2PMakola Testing                                                                                                                                                                                                                                                                                                                                                                       
CO2TKCBLKENX   KCBLKENX   KES1400530450001TWO                KES20190225902250010000052000000000005000000C 2019022520190225311063464       20190215160627  311063464       905000000000                  109758777                                R40401000  S40403000                                                                                                                                                                                                                                                                                                                                                                                            758779P2PMakola Testing                                                                                                                                                                                                                                                                                                                                                                       
CO2TKCBLKENX   KCBLKENX   KES1400530450001TWO                KES20190225902250010000062000000000001100000C 2019022520190225101000000000    20190215160759  101000000000    905000000000                  109758916                                R40401000  S40457000                                                                                                                                                                                                                                                                                                                                                                                            758918P2PTEST ACCOUNT  NAME                                                                                                                                                                                                                                                                                                                                                                   
CO2TKCBLKENX   KCBLKENX   KES1400530450001TWO                KES20190225902250010000072000000000006000000C 20190225201902251080000000000   20190215161234  1080000000000   905000000000                  109759348                                R40401000  S40412000                                                                                                                                                                                                                                                                                                                                                                                            759351P2PNone                                                                                                                                                                                                                                                                                                                                                                                 
CO2TKCBLKENX   KCBLKENX   KES1400530450001TWO                KES20190225902250010000082000000000001100000C 2019022520190225101000000000    20190215161321  101000000000    905000000000                  109759442                                R40401000  S40457000                                                                                                                                                                                                                                                                                                                                                                                            759444P2PTEST ACCOUNT  NAME                                                                                                                                                                                                                                                                                                                                                                   
CO2TKCBLKENX   KCBLKENX   KES1400530450001TWO                KES20190225902250010000092000000000040500000C 20190225201902251097580008      20190219114236  1097580008      905000000000                  110250704                                R40401000  S40419000                                                                                                                                                                                                                                                                                                                                                                                            250714P2PSTANLEY  MUCHAI  KIBORO                                                                                                                                                                                                                                                                                                                                                              
CO2TKCBLKENX   KCBLKENX   KES1400530450001TWO                KES20190225902250010000102000000000001110000D 20190225201902251101880538      20190220142309  1101880538      905000000000                  110409613                                R40401000  S40401000                                                                                                                                                                                                                                                                                                                                                                                            409614P2PCHARLES KOECH                                                                                                                                                                                                                                                                                                                                                                        
CO2TKCBLKENX   KCBLKENX   KES1400530450001TWO                KES20190225902250010000112000000000001110000C 2019022520190225                20190220142309                  905000000000                  110409613                                R40401000  S40401000                                                                                                                                                                                                                                                                                                                                                                                            409615P2P                                                                                                                                                                                                                                                                                                                                                                                     
CO2TKCBLKENX   KCBLKENX   KES1400530450001TWO                KES20190225902250010000122000000000001210000C 2019022520190225                20190220145645                  905000000000                  110412913                                R40401000  S40401000                                                                                                                                                                                                                                                                                                                                                                                            412915P2P                                                                                                                                                                                                                                                                                                                                                                                     
CO2TKCBLKENX   KCBLKENX   KES1400530450001TWO                KES20190225902250010000132000000000001210000D 20190225201902251101880538      20190220145645  1101880538      905000000000                  110412913                                R40401000  S40401000                                                                                                                                                                                                                                                                                                                                                                                            412914P2PCHARLES KOECH                                                                                                                                                                                                                                                                                                                                                                        
CO2TKCBLKENX   KCBLKENX   KES1400530450001TWO                KES20190225902250010000142000000000001200000C 2019022520190225                20190220150404                  905000000000                  110413624                                R40401000  S40401000                                                                                                                                                                                                                                                                                                                                                                                            413626P2P                                                                                                                                                                                                                                                                                                                                                                                     
CO2TKCBLKENX   KCBLKENX   KES1400530450001TWO                KES20190225902250010000152000000000001200000D 20190225201902251101880538      20190220150404  1101880538      905000000000                  110413624                                R40401000  S40401000                                                                                                                                                                                                                                                                                                                                                                                            413625P2PCHARLES KOECH                                                                                                                                                                                                                                                                                                                                                                        
CO2TKCBLKENX   KCBLKENX   KES1400530450001TWO                KES20190225902250010000162000000000001110000D 20190225201902251101880538      20190220151440  1101880538      905000000000                  110414684                                R40401000  S40401000                                                                                                                                                                                                                                                                                                                                                                                            414685P2PCHARLES KOECH                                                                                                                                                                                                                                                                                                                                                                        
CO2TKCBLKENX   KCBLKENX   KES1400530450001TWO                KES20190225902250010000172000000000001110000C 2019022520190225                20190220151440                  905000000000                  110414684                                R40401000  S40401000                                                                                                                                                                                                                                                                                                                                                                                            414688P2P                                                                                                                                                                                                                                                                                                                                                                                     
CO2TKCBLKENX   KCBLKENX   KES1400530450001TWO                KES20190225902250010000182000000000001000000D 20190225201902251139837192      20190221115646  1139837192      905000000000                  110529310                                R  S40401000                                                                                                                                                                                                                                                                                                                                                                                                    529311P2PAXON ENERGY LIMITED                                                                                                                                                                                                                                                                                                                                                                  
CO2TKCBLKENX   KCBLKENX   KES1400530450001TWO                KES20190225902250010000192000000000001000000C 20190225201902251139837192      20190221115647  1139837192      905000000000                  110529310                                R  S40401000                                                                                                                                                                                                                                                                                                                                                                                                    529313P2PAXON ENERGY LIMITED                                                                                                                                                                                                                                                                                                                                                                  
CO2TKCBLKENX   KCBLKENX   KES1400530450001TWO                KES20190225902250010000202000000000001000000C 2019022520190225                20190221164057                  905000000000                  110558460                                R40401000  S40412000                                                                                                                                                                                                                                                                                                                                                                                            558462P2P                                                                                                                                                                                                                                                                                                                                                                                     
CO2TKCBLKENX   KCBLKENX   KES1400530450001TWO                KES20190225902250010000212000000000002000000C 2019022520190225                20190221164327                  905000000000                  110558711                                R40401000  S40412000                                                                                                                                                                                                                                                                                                                                                                                            558713P2P                                                                                                                                                                                                                                                                                                                                                                                     
CO2TKCBLKENX   KCBLKENX   KES1400530450001TWO                KES20190225902250010000222000000000003200000C 2019022520190225                20190221165100                  905000000000                  110559463                                R40401000  S40412000                                                                                                                                                                                                                                                                                                                                                                                            559465P2P                                                                                                                                                                                                                                                                                                                                                                                     
CO2TKCBLKENX   KCBLKENX   KES1400530450001TWO                KES20190225902250010000232000000000422449500D 2019022520190225KES140310002000120190221175135  KES1403100020001905000000000                  110565438                                R  S40401000                                                                                                                                                                                                                                                                                                                                                                                                    565439P2PQUICKPAY WASH ACCOUNT                                                                                                                                                                                                                                                                                                                                                                
CO2TKCBLKENX   KCBLKENX   KES1400530450001TWO                KES20190225902250010000242000000000422449500C 2019022520190225KES140310002000120190221175135  KES1403100020001905000000000                  110565438                                R  S40401000                                                                                                                                                                                                                                                                                                                                                                                                    565441P2PQUICKPAY WASH ACCOUNT                                                                                                                                                                                                                                                                                                                                                                
CO2TKCBLKENX   KCBLKENX   KES1400530450001TWO                KES20190225902250010000252000000000000540000D 20190225201902251108696325      20190221180314  1108696325      905000000000                  110566602                                R40468000  S40401000                                                                                                                                                                                                                                                                                                                                                                                            566603P2PCIVIL SERVANTS HOUSING SCHEME FUND                                                                                                                                                                                                                                                                                                                                                   
CO2TKCBLKENX   KCBLKENX   KES1400530450001TWO                KES20190225902250010000262000000000000540000C 20190225201902251108696325      20190221180314  1108696325      905000000000                  110566602                                R40468000  S40401000                                                                                                                                                                                                                                                                                                                                                                                            566605P2PCIVIL SERVANTS HOUSING SCHEME FUND                                                                                                                                                                                                                                                                                                                                                   
CO2TKCBLKENX   KCBLKENX   KES1400530450001TWO                KES20190225902250010000272000000000012616000D 20190225201902251139837192      20190221182540  1139837192      905000000000                  110568900                                R40468000  S40401000                                                                                                                                                                                                                                                                                                                                                                                            568901P2PAXON ENERGY LIMITED                                                                                                                                                                                                                                                                                                                                                                  
CO2TKCBLKENX   KCBLKENX   KES1400530450001TWO                KES20190225902250010000282000000000012616000C 20190225201902251139837192      20190221182541  1139837192      905000000000                  110568900                                R40468000  S40401000                                                                                                                                                                                                                                                                                                                                                                                            568903P2PAXON ENERGY LIMITED                                                                                                                                                                                                                                                                                                                                                                  
CO2TKCBLKENX   KCBLKENX   KES1400530450001TWO                KES20190225902250010000292000000000022336000D 20190225201902251102917028      20190221184226  1102917028      905000000000                  110570686                                R40478000  S40401000                                                                                                                                                                                                                                                                                                                                                                                            570687P2PJOSEPHINE MUTHOKI MALONZA                                                                                                                                                                                                                                                                                                                                                            
CO2TKCBLKENX   KCBLKENX   KES1400530450001TWO                KES20190225902250010000302000000000421849500C 2019022520190225KES140310002000120190221191436  KES1403100020001905000000000                  110574076                                R  S40401000                                                                                                                                                                                                                                                                                                                                                                                                    574079P2PQUICKPAY WASH ACCOUNT                                                                                                                                                                                                                                                                                                                                                                
CO2TKCBLKENX   KCBLKENX   KES1400530450001TWO                KES20190225902250010000312000000000421849500D 2019022520190225KES140310002000120190221191436  KES1403100020001905000000000                  110574076                                R  S40401000                                                                                                                                                                                                                                                                                                                                                                                                    574077P2PQUICKPAY WASH ACCOUNT                                                                                                                                                                                                                                                                                                                                                                
CO2TKCBLKENX   KCBLKENX   KES1400530450001TWO                KES20190225902250010000322000000000310849500C 2019022520190225KES140310002000120190221191441  KES1403100020001905000000000                  110574085                                R40468000  S40401000                                                                                                                                                                                                                                                                                                                                                                                            574088P2PQUICKPAY WASH ACCOUNT                                                                                                                                                                                                                                                                                                                                                                
CO2TKCBLKENX   KCBLKENX   KES1400530450001TWO                KES20190225902250010000332000000000310849500D 2019022520190225KES140310002000120190221191441  KES1403100020001905000000000                  110574085                                R40468000  S40401000                                                                                                                                                                                                                                                                                                                                                                                            574086P2PQUICKPAY WASH ACCOUNT                                                                                                                                                                                                                                                                                                                                                                
CO2TKCBLKENX   KCBLKENX   KES1400530450001TWO                KES20190225902250010000342000000000310849500D 2019022520190225KES140310002000120190222113312  KES1403100020001905000000000                  110667318                                R40468000  S40401000                                                                                                                                                                                                                                                                                                                                                                                            667319P2PQUICKPAY WASH ACCOUNT                                                                                                                                                                                                                                                                                                                                                                
CO2TKCBLKENX   KCBLKENX   KES1400530450001TWO                KES20190225902250010000352000000000310849500C 2019022520190225KES140310002000120190222113313  KES1403100020001905000000000                  110667318                                R40468000  S40401000                                                                                                                                                                                                                                                                                                                                                                                            667323P2PQUICKPAY WASH ACCOUNT                                                                                                                                                                                                                                                                                                                                                                
CO2TKCBLKENX   KCBLKENX   KES1400530450001TWO                KES20190225902250010000362000000000005116000D 20190225201902251102917028      20190222122700  1102917028      905000000000                  110672520                                R40478000  S40401000                                                                                                                                                                                                                                                                                                                                                                                            672521P2PJOSEPHINE MUTHOKI MALONZA                                                                                                                                                                                                                                                                                                                                                            
CO2TKCBLKENX   KCBLKENX   KES1400530450001TWO                KES20190225902250010000372000000000013916000C 20190225201902251139837192      20190222123815  1139837192      905000000000                  110673639                                R40468000  S40401000                                                                                                                                                                                                                                                                                                                                                                                            673642P2PAXON ENERGY LIMITED                                                                                                                                                                                                                                                                                                                                                                  
CO2TKCBLKENX   KCBLKENX   KES1400530450001TWO                KES20190225902250010000382000000000013916000D 20190225201902251139837192      20190222123815  1139837192      905000000000                  110673639                                R40468000  S40401000                                                                                                                                                                                                                                                                                                                                                                                            673640P2PAXON ENERGY LIMITED                                                                                                                                                                                                                                                                                                                                                                  
CO2TKCBLKENX   KCBLKENX   KES1400530450001TWO                KES20190225902250010000392000000000050126000D 20190225201902251102917028      20190222124704  1102917028      905000000000                  110674503                                R4047800  S40401000                                                                                                                                                                                                                                                                                                                                                                                             674504P2PJOSEPHINE MUTHOKI MALONZA                                                                                                                                                                                                                                                                                                                                                            
CO2TKCBLKENX   KCBLKENX   KES1400530450001TWO                KES20190225902250010000402000000000013916000C 20190225201902251139837192      20190222165108  1139837192      905000000000                  110698857                                R40468000  S40401000                                                                                                                                                                                                                                                                                                                                                                                            698860P2PAXON ENERGY LIMITED                                                                                                                                                                                                                                                                                                                                                                  
CO2TKCBLKENX   KCBLKENX   KES1400530450001TWO                KES20190225902250010000412000000000013916000D 20190225201902251139837192      20190222165108  1139837192      905000000000                  110698857                                R40468000  S40401000                                                                                                                                                                                                                                                                                                                                                                                            698858P2PAXON ENERGY LIMITED                                                                                                                                                                                                                                                                                                                                                                  
CO2TKCBLKENX   KCBLKENX   KES1400530450001TWO                KES20190225902250010000422000000000030500000C 2019022520190225                20190222175843                  905000000000                  110705796                                R40401000  S40441000                                                                                                                                                                                                                                                                                                                                                                                            705798P2P                                                                                                                                                                                                                                                                                                                                                                                     
CO2TKCBLKENX   KCBLKENX   KES1400530450001TWO                KES20190225902250010000432000000000017402000D 2019022520190225DUMMY                                                                                                                                                                                                                                                                                                                                                                                                                                                                                                                                                                                                                                                                                                                                                                                                                                                                                                                                
CO3TKCBLKENX   KCBLKENX   KES1400530450001TWO                KES2019022590225001000044320190225000000000000000000C                                                                                                                                                                                                                                                                                                                                                                                                                                                                                                                                                                                                                                                                                                                                                                                                                                                                                                                                              
