CO0O                                                            00000000000000000000000CORONA    CS        070702019020519000000                                                                                                                                                                                                                                                                                                                                                                                                                                                                                                                                                                                                                                                                                                                                                                                                                                                                                                                                
CO1OKCBLKENX   KCBLKENX   KES1400530450001VOOMA              KES2019022590225001000001120190225000000000000000000C                                                                                                                                                                                                                                                                                                                                                                                                                                                                                                                                                                                                                                                                                                                                                                                                                                                                                                                                              
CO2OKCBLKENX   KCBLKENX   KES1400530450001VOOMA              KES20190225902250010000022
CO2OKCBLKENX   KCBLKENX   KES1400530450001VOOMA              KES20190225902250010000032
CO2OKCBLKENX   KCBLKENX   KES1400530450001VOOMA              KES20190225902250010000042
CO2OKCBLKENX   KCBLKENX   KES1400530450001VOOMA              KES20190225902250010000052
CO2OKCBLKENX   KCBLKENX   KES1400530450001VOOMA              KES20190225902250010000062
CO2OKCBLKENX   KCBLKENX   KES1400530450001VOOMA              KES20190225902250010000072
CO2OKCBLKENX   KCBLKENX   KES1400530450001VOOMA              KES20190225902250010000082
CO2OKCBLKENX   KCBLKENX   KES1400530450001VOOMA              KES20190225902250010000092
CO2OKCBLKENX   KCBLKENX   KES1400530450001VOOMA              KES20190225902250010000102
CO2OKCBLKENX   KCBLKENX   KES1400530450001VOOMA              KES20190225902250010000112
CO2OKCBLKENX   KCBLKENX   KES1400530450001VOOMA              KES20190225902250010000122
CO2OKCBLKENX   KCBLKENX   KES1400530450001VOOMA              KES20190225902250010000132
CO2OKCBLKENX   KCBLKENX   KES1400530450001VOOMA              KES20190225902250010000142
CO2OKCBLKENX   KCBLKENX   KES1400530450001VOOMA              KES20190225902250010000152
CO2OKCBLKENX   KCBLKENX   KES1400530450001VOOMA              KES20190225902250010000162
CO2OKCBLKENX   KCBLKENX   KES1400530450001VOOMA              KES20190225902250010000172
CO2OKCBLKENX   KCBLKENX   KES1400530450001VOOMA              KES20190225902250010000182
CO2OKCBLKENX   KCBLKENX   KES1400530450001VOOMA              KES20190225902250010000192
CO2OKCBLKENX   KCBLKENX   KES1400530450001VOOMA              KES20190225902250010000202
CO2OKCBLKENX   KCBLKENX   KES1400530450001VOOMA              KES20190225902250010000212
CO2OKCBLKENX   KCBLKENX   KES1400530450001VOOMA              KES20190225902250010000222
CO2OKCBLKENX   KCBLKENX   KES1400530450001VOOMA              KES20190225902250010000232
